{
	"data": {
		"bytecode": {
			"linkReferences": {},
			"object": "608060405234801561000f575f80fd5b5060d98061001c5f395ff3fe6080604052348015600e575f80fd5b5060043610603a575f3560e01c806306661abd14603e578063371303c01460575780636d4ce63c14605d575b5f80fd5b60455f5481565b60405190815260200160405180910390f35b60456063565b5f546045565b5f60015f8082825460739190607f565b90915550505f54919050565b80820180821115609d57634e487b7160e01b5f52601160045260245ffd5b9291505056fea2646970667358221220f326ae7880f9aaecad4e36b42064fc0e4320b86e08aea30f14d47acf8ef067fe64736f6c63430008150033",
			"opcodes": "PUSH1 0x80 PUSH1 0x40 MSTORE CALLVALUE DUP1 ISZERO PUSH2 0xF JUMPI PUSH0 DUP1 REVERT JUMPDEST POP PUSH1 0xD9 DUP1 PUSH2 0x1C PUSH0 CODECOPY PUSH0 RETURN INVALID PUSH1 0x80 PUSH1 0x40 MSTORE CALLVALUE DUP1 ISZERO PUSH1 0xE JUMPI PUSH0 DUP1 REVERT JUMPDEST POP PUSH1 0x4 CALLDATASIZE LT PUSH1 0x3A JUMPI PUSH0 CALLDATALOAD PUSH1 0xE0 SHR DUP1 PUSH4 0x6661ABD EQ PUSH1 0x3E JUMPI DUP1 PUSH4 0x371303C0 EQ PUSH1 0x57 JUMPI DUP1 PUSH4 0x6D4CE63C EQ PUSH1 0x5D JUMPI JUMPDEST PUSH0 DUP1 REVERT JUMPDEST PUSH1 0x45 PUSH0 SLOAD DUP2 JUMP JUMPDEST PUSH1 0x40 MLOAD SWAP1 DUP2 MSTORE PUSH1 0x20 ADD PUSH1 0x40 MLOAD DUP1 SWAP2 SUB SWAP1 RETURN JUMPDEST PUSH1 0x45 PUSH1 0x63 JUMP JUMPDEST PUSH0 SLOAD PUSH1 0x45 JUMP JUMPDEST PUSH0 PUSH1 0x1 PUSH0 DUP1 DUP3 DUP3 SLOAD PUSH1 0x73 SWAP2 SWAP1 PUSH1 0x7F JUMP JUMPDEST SWAP1 SWAP2 SSTORE POP POP PUSH0 SLOAD SWAP2 SWAP1 POP JUMP JUMPDEST DUP1 DUP3 ADD DUP1 DUP3 GT ISZERO PUSH1 0x9D JUMPI PUSH4 0x4E487B71 PUSH1 0xE0 SHL PUSH0 MSTORE PUSH1 0x11 PUSH1 0x4 MSTORE PUSH1 0x24 PUSH0 REVERT JUMPDEST SWAP3 SWAP2 POP POP JUMP INVALID LOG2 PUSH5 0x6970667358 0x22 SLT KECCAK256 RETURN 0x26 0xAE PUSH25 0x80F9AAECAD4E36B42064FC0E4320B86E08AEA30F14D47ACF8E CREATE PUSH8 0xFE64736F6C634300 ADDMOD ISZERO STOP CALLER "
		},
		"gasEstimates": {
			"creation": {
				"codeDepositCost": "43400",
				"executionCost": "91",
				"totalCost": "43491"
			},
			"external": {
				"count()": "2259",
				"get()": "2300",
				"inc()": "26599"
			}
		},
		"methodIdentifiers": {
			"count()": "06661abd",
			"get()": "6d4ce63c",
			"inc()": "371303c0"
		}
	},
	"abi": [
		{
			"inputs": [],
			"name": "count",
			"outputs": [
				{
					"internalType": "uint256",
					"name": "",
					"type": "uint256"
				}
			],
			"stateMutability": "view",
			"type": "function"
		},
		{
			"inputs": [],
			"name": "get",
			"outputs": [
				{
					"internalType": "uint256",
					"name": "",
					"type": "uint256"
				}
			],
			"stateMutability": "view",
			"type": "function"
		},
		{
			"inputs": [],
			"name": "inc",
			"outputs": [
				{
					"internalType": "uint256",
					"name": "",
					"type": "uint256"
				}
			],
			"stateMutability": "nonpayable",
			"type": "function"
		}
	]
}