{
	"data": {
		"bytecode": {
			"linkReferences": {},
			"object": "608060405234801561000f575f80fd5b5061010b8061001d5f395ff3fe6080604052600436106039575f3560e01c80630c55699c14603d5780633fa4f2451460625780634018d9aa146075578063cdc23076146092575b5f80fd5b3480156047575f80fd5b50604f5f5481565b6040519081526020015b60405180910390f35b348015606c575f80fd5b50604f60015481565b348015607f575f80fd5b50604f608b36600460bf565b5f81905590565b60ab609d36600460bf565b5f8190553460018190559091565b604080519283526020830191909152016059565b5f6020828403121560ce575f80fd5b503591905056fea26469706673582212208d2b3eae2e15d3a541ea1e6182dba72cd97a5b6bdc2f65e24ced511941bc378264736f6c63430008150033",
			"opcodes": "PUSH1 0x80 PUSH1 0x40 MSTORE CALLVALUE DUP1 ISZERO PUSH2 0xF JUMPI PUSH0 DUP1 REVERT JUMPDEST POP PUSH2 0x10B DUP1 PUSH2 0x1D PUSH0 CODECOPY PUSH0 RETURN INVALID PUSH1 0x80 PUSH1 0x40 MSTORE PUSH1 0x4 CALLDATASIZE LT PUSH1 0x39 JUMPI PUSH0 CALLDATALOAD PUSH1 0xE0 SHR DUP1 PUSH4 0xC55699C EQ PUSH1 0x3D JUMPI DUP1 PUSH4 0x3FA4F245 EQ PUSH1 0x62 JUMPI DUP1 PUSH4 0x4018D9AA EQ PUSH1 0x75 JUMPI DUP1 PUSH4 0xCDC23076 EQ PUSH1 0x92 JUMPI JUMPDEST PUSH0 DUP1 REVERT JUMPDEST CALLVALUE DUP1 ISZERO PUSH1 0x47 JUMPI PUSH0 DUP1 REVERT JUMPDEST POP PUSH1 0x4F PUSH0 SLOAD DUP2 JUMP JUMPDEST PUSH1 0x40 MLOAD SWAP1 DUP2 MSTORE PUSH1 0x20 ADD JUMPDEST PUSH1 0x40 MLOAD DUP1 SWAP2 SUB SWAP1 RETURN JUMPDEST CALLVALUE DUP1 ISZERO PUSH1 0x6C JUMPI PUSH0 DUP1 REVERT JUMPDEST POP PUSH1 0x4F PUSH1 0x1 SLOAD DUP2 JUMP JUMPDEST CALLVALUE DUP1 ISZERO PUSH1 0x7F JUMPI PUSH0 DUP1 REVERT JUMPDEST POP PUSH1 0x4F PUSH1 0x8B CALLDATASIZE PUSH1 0x4 PUSH1 0xBF JUMP JUMPDEST PUSH0 DUP2 SWAP1 SSTORE SWAP1 JUMP JUMPDEST PUSH1 0xAB PUSH1 0x9D CALLDATASIZE PUSH1 0x4 PUSH1 0xBF JUMP JUMPDEST PUSH0 DUP2 SWAP1 SSTORE CALLVALUE PUSH1 0x1 DUP2 SWAP1 SSTORE SWAP1 SWAP2 JUMP JUMPDEST PUSH1 0x40 DUP1 MLOAD SWAP3 DUP4 MSTORE PUSH1 0x20 DUP4 ADD SWAP2 SWAP1 SWAP2 MSTORE ADD PUSH1 0x59 JUMP JUMPDEST PUSH0 PUSH1 0x20 DUP3 DUP5 SUB SLT ISZERO PUSH1 0xCE JUMPI PUSH0 DUP1 REVERT JUMPDEST POP CALLDATALOAD SWAP2 SWAP1 POP JUMP INVALID LOG2 PUSH5 0x6970667358 0x22 SLT KECCAK256 DUP14 0x2B RETURNDATACOPY 0xAE 0x2E ISZERO 0xD3 0xA5 COINBASE 0xEA 0x1E PUSH2 0x82DB 0xA7 0x2C 0xD9 PUSH27 0x5B6BDC2F65E24CED511941BC378264736F6C634300081500330000 "
		},
		"gasEstimates": {
			"creation": {
				"codeDepositCost": "53400",
				"executionCost": "103",
				"totalCost": "53503"
			},
			"external": {
				"setX(uint256)": "22386",
				"setXandSendEther(uint256)": "44533",
				"value()": "2283",
				"x()": "2260"
			}
		},
		"methodIdentifiers": {
			"setX(uint256)": "4018d9aa",
			"setXandSendEther(uint256)": "cdc23076",
			"value()": "3fa4f245",
			"x()": "0c55699c"
		}
	},
	"abi": [
		{
			"inputs": [
				{
					"internalType": "uint256",
					"name": "_x",
					"type": "uint256"
				}
			],
			"name": "setX",
			"outputs": [
				{
					"internalType": "uint256",
					"name": "",
					"type": "uint256"
				}
			],
			"stateMutability": "nonpayable",
			"type": "function"
		},
		{
			"inputs": [
				{
					"internalType": "uint256",
					"name": "_x",
					"type": "uint256"
				}
			],
			"name": "setXandSendEther",
			"outputs": [
				{
					"internalType": "uint256",
					"name": "",
					"type": "uint256"
				},
				{
					"internalType": "uint256",
					"name": "",
					"type": "uint256"
				}
			],
			"stateMutability": "payable",
			"type": "function"
		},
		{
			"inputs": [],
			"name": "value",
			"outputs": [
				{
					"internalType": "uint256",
					"name": "",
					"type": "uint256"
				}
			],
			"stateMutability": "view",
			"type": "function"
		},
		{
			"inputs": [],
			"name": "x",
			"outputs": [
				{
					"internalType": "uint256",
					"name": "",
					"type": "uint256"
				}
			],
			"stateMutability": "view",
			"type": "function"
		}
	]
}