{
	"src/contracts/allThemTogether.sol": {
		"Counter": {
			"abi": [
				{
					"inputs": [],
					"name": "count",
					"outputs": [
						{
							"internalType": "uint256",
							"name": "",
							"type": "uint256"
						}
					],
					"stateMutability": "view",
					"type": "function"
				},
				{
					"inputs": [],
					"name": "decrease",
					"outputs": [],
					"stateMutability": "nonpayable",
					"type": "function"
				},
				{
					"inputs": [],
					"name": "get",
					"outputs": [
						{
							"internalType": "uint256",
							"name": "",
							"type": "uint256"
						}
					],
					"stateMutability": "view",
					"type": "function"
				},
				{
					"inputs": [],
					"name": "increase",
					"outputs": [],
					"stateMutability": "nonpayable",
					"type": "function"
				}
			],
			"devdoc": {
				"kind": "dev",
				"methods": {},
				"version": 1
			},
			"evm": {
				"assembly": "    /* \"src/contracts/allThemTogether.sol\":140:437  contract Counter{... */\n  mstore(0x40, 0x80)\n  callvalue\n  dup1\n  iszero\n  tag_1\n  jumpi\n  0x00\n  dup1\n  revert\ntag_1:\n  pop\n  dataSize(sub_0)\n  dup1\n  dataOffset(sub_0)\n  0x00\n  codecopy\n  0x00\n  return\nstop\n\nsub_0: assembly {\n        /* \"src/contracts/allThemTogether.sol\":140:437  contract Counter{... */\n      mstore(0x40, 0x80)\n      callvalue\n      dup1\n      iszero\n      tag_1\n      jumpi\n      0x00\n      dup1\n      revert\n    tag_1:\n      pop\n      jumpi(tag_2, lt(calldatasize, 0x04))\n      shr(0xe0, calldataload(0x00))\n      dup1\n      0x06661abd\n      eq\n      tag_3\n      jumpi\n      dup1\n      0x6d4ce63c\n      eq\n      tag_4\n      jumpi\n      dup1\n      0xd732d955\n      eq\n      tag_5\n      jumpi\n      dup1\n      0xe8927fbc\n      eq\n      tag_6\n      jumpi\n    tag_2:\n      0x00\n      dup1\n      revert\n        /* \"src/contracts/allThemTogether.sol\":163:180  uint public count */\n    tag_3:\n      tag_7\n      sload(0x00)\n      dup2\n      jump\n    tag_7:\n      mload(0x40)\n        /* \"#utility.yul\":160:185   */\n      swap1\n      dup2\n      mstore\n        /* \"#utility.yul\":148:150   */\n      0x20\n        /* \"#utility.yul\":133:151   */\n      add\n        /* \"src/contracts/allThemTogether.sol\":163:180  uint public count */\n      mload(0x40)\n      dup1\n      swap2\n      sub\n      swap1\n      return\n        /* \"src/contracts/allThemTogether.sol\":189:261  function get() public view returns (uint){... */\n    tag_4:\n        /* \"src/contracts/allThemTogether.sol\":225:229  uint */\n      0x00\n        /* \"src/contracts/allThemTogether.sol\":248:253  count */\n      sload\n        /* \"src/contracts/allThemTogether.sol\":189:261  function get() public view returns (uint){... */\n      jump(tag_7)\n        /* \"src/contracts/allThemTogether.sol\":333:434  function decrease() public {... */\n    tag_5:\n      tag_14\n      tag_15\n      jump\t// in\n    tag_14:\n      stop\n        /* \"src/contracts/allThemTogether.sol\":269:325  function increase() public {... */\n    tag_6:\n      tag_14\n      tag_17\n      jump\t// in\n        /* \"src/contracts/allThemTogether.sol\":333:434  function decrease() public {... */\n    tag_15:\n        /* \"src/contracts/allThemTogether.sol\":423:424  1 */\n      0x01\n        /* \"src/contracts/allThemTogether.sol\":415:420  count */\n      0x00\n      dup1\n        /* \"src/contracts/allThemTogether.sol\":415:424  count -=1 */\n      dup3\n      dup3\n      sload\n      tag_20\n      swap2\n      swap1\n      tag_21\n      jump\t// in\n    tag_20:\n      swap1\n      swap2\n      sstore\n      pop\n      pop\n        /* \"src/contracts/allThemTogether.sol\":333:434  function decrease() public {... */\n      jump\t// out\n        /* \"src/contracts/allThemTogether.sol\":269:325  function increase() public {... */\n    tag_17:\n        /* \"src/contracts/allThemTogether.sol\":316:317  1 */\n      0x01\n        /* \"src/contracts/allThemTogether.sol\":307:312  count */\n      0x00\n      dup1\n        /* \"src/contracts/allThemTogether.sol\":307:317  count += 1 */\n      dup3\n      dup3\n      sload\n      tag_20\n      swap2\n      swap1\n      tag_24\n      jump\t// in\n        /* \"#utility.yul\":196:323   */\n    tag_25:\n        /* \"#utility.yul\":257:267   */\n      0x4e487b71\n        /* \"#utility.yul\":252:255   */\n      0xe0\n        /* \"#utility.yul\":248:268   */\n      shl\n        /* \"#utility.yul\":245:246   */\n      0x00\n        /* \"#utility.yul\":238:269   */\n      mstore\n        /* \"#utility.yul\":288:292   */\n      0x11\n        /* \"#utility.yul\":285:286   */\n      0x04\n        /* \"#utility.yul\":278:293   */\n      mstore\n        /* \"#utility.yul\":312:316   */\n      0x24\n        /* \"#utility.yul\":309:310   */\n      0x00\n        /* \"#utility.yul\":302:317   */\n      revert\n        /* \"#utility.yul\":328:456   */\n    tag_21:\n        /* \"#utility.yul\":395:404   */\n      dup2\n      dup2\n      sub\n        /* \"#utility.yul\":416:427   */\n      dup2\n      dup2\n      gt\n        /* \"#utility.yul\":413:450   */\n      iszero\n      tag_31\n      jumpi\n        /* \"#utility.yul\":430:448   */\n      tag_31\n      tag_25\n      jump\t// in\n    tag_31:\n        /* \"#utility.yul\":328:456   */\n      swap3\n      swap2\n      pop\n      pop\n      jump\t// out\n        /* \"#utility.yul\":461:586   */\n    tag_24:\n        /* \"#utility.yul\":526:535   */\n      dup1\n      dup3\n      add\n        /* \"#utility.yul\":547:557   */\n      dup1\n      dup3\n      gt\n        /* \"#utility.yul\":544:580   */\n      iszero\n      tag_31\n      jumpi\n        /* \"#utility.yul\":560:578   */\n      tag_31\n      tag_25\n      jump\t// in\n\n    auxdata: 0xa264697066735822122068b236d1592ea41a4eb263a22dce85da8bebbeed07b9ce924ac2cf1dcdb6c2dc64736f6c63430008140033\n}\n",
				"bytecode": {
					"linkReferences": {},
					"object": "608060405234801561000f575f80fd5b5061010a8061001d5f395ff3fe6080604052348015600e575f80fd5b50600436106044575f3560e01c806306661abd1460485780636d4ce63c146061578063d732d955146067578063e8927fbc14606f575b5f80fd5b604f5f5481565b60405190815260200160405180910390f35b5f54604f565b606d6075565b005b606d608b565b60015f808282546084919060ae565b9091555050565b60015f808282546084919060c4565b634e487b7160e01b5f52601160045260245ffd5b8181038181111560be5760be609a565b92915050565b8082018082111560be5760be609a56fea264697066735822122068b236d1592ea41a4eb263a22dce85da8bebbeed07b9ce924ac2cf1dcdb6c2dc64736f6c63430008140033",
					"opcodes": "PUSH1 0x80 PUSH1 0x40 MSTORE CALLVALUE DUP1 ISZERO PUSH2 0xF JUMPI PUSH0 DUP1 REVERT JUMPDEST POP PUSH2 0x10A DUP1 PUSH2 0x1D PUSH0 CODECOPY PUSH0 RETURN INVALID PUSH1 0x80 PUSH1 0x40 MSTORE CALLVALUE DUP1 ISZERO PUSH1 0xE JUMPI PUSH0 DUP1 REVERT JUMPDEST POP PUSH1 0x4 CALLDATASIZE LT PUSH1 0x44 JUMPI PUSH0 CALLDATALOAD PUSH1 0xE0 SHR DUP1 PUSH4 0x6661ABD EQ PUSH1 0x48 JUMPI DUP1 PUSH4 0x6D4CE63C EQ PUSH1 0x61 JUMPI DUP1 PUSH4 0xD732D955 EQ PUSH1 0x67 JUMPI DUP1 PUSH4 0xE8927FBC EQ PUSH1 0x6F JUMPI JUMPDEST PUSH0 DUP1 REVERT JUMPDEST PUSH1 0x4F PUSH0 SLOAD DUP2 JUMP JUMPDEST PUSH1 0x40 MLOAD SWAP1 DUP2 MSTORE PUSH1 0x20 ADD PUSH1 0x40 MLOAD DUP1 SWAP2 SUB SWAP1 RETURN JUMPDEST PUSH0 SLOAD PUSH1 0x4F JUMP JUMPDEST PUSH1 0x6D PUSH1 0x75 JUMP JUMPDEST STOP JUMPDEST PUSH1 0x6D PUSH1 0x8B JUMP JUMPDEST PUSH1 0x1 PUSH0 DUP1 DUP3 DUP3 SLOAD PUSH1 0x84 SWAP2 SWAP1 PUSH1 0xAE JUMP JUMPDEST SWAP1 SWAP2 SSTORE POP POP JUMP JUMPDEST PUSH1 0x1 PUSH0 DUP1 DUP3 DUP3 SLOAD PUSH1 0x84 SWAP2 SWAP1 PUSH1 0xC4 JUMP JUMPDEST PUSH4 0x4E487B71 PUSH1 0xE0 SHL PUSH0 MSTORE PUSH1 0x11 PUSH1 0x4 MSTORE PUSH1 0x24 PUSH0 REVERT JUMPDEST DUP2 DUP2 SUB DUP2 DUP2 GT ISZERO PUSH1 0xBE JUMPI PUSH1 0xBE PUSH1 0x9A JUMP JUMPDEST SWAP3 SWAP2 POP POP JUMP JUMPDEST DUP1 DUP3 ADD DUP1 DUP3 GT ISZERO PUSH1 0xBE JUMPI PUSH1 0xBE PUSH1 0x9A JUMP INVALID LOG2 PUSH5 0x6970667358 0x22 SLT KECCAK256 PUSH9 0xB236D1592EA41A4EB2 PUSH4 0xA22DCE85 0xDA DUP12 0xEB 0xBE 0xED SMOD 0xB9 0xCE SWAP3 0x4A 0xC2 0xCF SAR 0xCD 0xB6 0xC2 0xDC PUSH5 0x736F6C6343 STOP ADDMOD EQ STOP CALLER "
				},
				"gasEstimates": {
					"creation": {
						"codeDepositCost": "53200",
						"executionCost": "103",
						"totalCost": "53303"
					},
					"external": {
						"count()": "2259",
						"decrease()": "24464",
						"get()": "2278",
						"increase()": "24486"
					}
				},
				"methodIdentifiers": {
					"count()": "06661abd",
					"decrease()": "d732d955",
					"get()": "6d4ce63c",
					"increase()": "e8927fbc"
				}
			},
			"storageLayout": {
				"storage": [
					{
						"astId": 7,
						"contract": "src/contracts/allThemTogether.sol:Counter",
						"label": "count",
						"offset": 0,
						"slot": "0",
						"type": "t_uint256"
					}
				],
				"types": {
					"t_uint256": {
						"encoding": "inplace",
						"label": "uint256",
						"numberOfBytes": "32"
					}
				}
			},
			"userdoc": {
				"kind": "user",
				"methods": {},
				"version": 1
			}
		}
	}
}