{
	"src/pages/try-catch/TryCatch.sol": {
		"Foo": {
			"abi": [
				{
					"inputs": [
						{
							"internalType": "address",
							"name": "_owner",
							"type": "address"
						}
					],
					"stateMutability": "nonpayable",
					"type": "constructor"
				},
				{
					"inputs": [
						{
							"internalType": "uint256",
							"name": "x",
							"type": "uint256"
						}
					],
					"name": "myFunc",
					"outputs": [
						{
							"internalType": "string",
							"name": "",
							"type": "string"
						}
					],
					"stateMutability": "pure",
					"type": "function"
				},
				{
					"inputs": [],
					"name": "owner",
					"outputs": [
						{
							"internalType": "address",
							"name": "",
							"type": "address"
						}
					],
					"stateMutability": "view",
					"type": "function"
				}
			],
			"devdoc": {
				"kind": "dev",
				"methods": {},
				"version": 1
			},
			"evm": {
				"assembly": "    /* \"src/pages/try-catch/TryCatch.sol\":113:514  contract Foo {... */\n  mstore(0x40, 0x80)\n    /* \"src/pages/try-catch/TryCatch.sol\":162:353  constructor(address _owner) {... */\n  callvalue\n  dup1\n  iszero\n  tag_1\n  jumpi\n  0x00\n  dup1\n  revert\ntag_1:\n  pop\n  mload(0x40)\n  sub(codesize, bytecodeSize)\n  dup1\n  bytecodeSize\n  dup4\n  codecopy\n  dup2\n  add\n  0x40\n  dup2\n  swap1\n  mstore\n  tag_2\n  swap2\n  tag_3\n  jump\t// in\ntag_2:\n  sub(shl(0xa0, 0x01), 0x01)\n    /* \"src/pages/try-catch/TryCatch.sol\":209:229  _owner != address(0) */\n  dup2\n  and\n    /* \"src/pages/try-catch/TryCatch.sol\":201:249  require(_owner != address(0), \"invalid address\") */\n  tag_6\n  jumpi\n  mload(0x40)\n  shl(0xe5, 0x461bcd)\n  dup2\n  mstore\n    /* \"#utility.yul\":511:513   */\n  0x20\n    /* \"src/pages/try-catch/TryCatch.sol\":201:249  require(_owner != address(0), \"invalid address\") */\n  0x04\n  dup3\n  add\n    /* \"#utility.yul\":493:514   */\n  mstore\n    /* \"#utility.yul\":550:552   */\n  0x0f\n    /* \"#utility.yul\":530:548   */\n  0x24\n  dup3\n  add\n    /* \"#utility.yul\":523:553   */\n  mstore\n  shl(0x88, 0x696e76616c69642061646472657373)\n    /* \"#utility.yul\":569:587   */\n  0x44\n  dup3\n  add\n    /* \"#utility.yul\":562:607   */\n  mstore\n    /* \"#utility.yul\":624:642   */\n  0x64\n  add\n    /* \"src/pages/try-catch/TryCatch.sol\":201:249  require(_owner != address(0), \"invalid address\") */\n  mload(0x40)\n  dup1\n  swap2\n  sub\n  swap1\n  revert\ntag_6:\n  sub(shl(0xa0, 0x01), 0x01)\n    /* \"src/pages/try-catch/TryCatch.sol\":267:319  _owner != 0x0000000000000000000000000000000000000001 */\n  dup2\n  and\n    /* \"src/pages/try-catch/TryCatch.sol\":277:319  0x0000000000000000000000000000000000000001 */\n  0x01\n    /* \"src/pages/try-catch/TryCatch.sol\":267:319  _owner != 0x0000000000000000000000000000000000000001 */\n  sub\n    /* \"src/pages/try-catch/TryCatch.sol\":260:320  assert(_owner != 0x0000000000000000000000000000000000000001) */\n  tag_10\n  jumpi\n  tag_10\n  tag_11\n  jump\t// in\ntag_10:\n    /* \"src/pages/try-catch/TryCatch.sol\":331:336  owner */\n  0x00\n    /* \"src/pages/try-catch/TryCatch.sol\":331:345  owner = _owner */\n  dup1\n  sload\n  not(sub(shl(0xa0, 0x01), 0x01))\n  and\n  sub(shl(0xa0, 0x01), 0x01)\n  swap3\n  swap1\n  swap3\n  and\n  swap2\n  swap1\n  swap2\n  or\n  swap1\n  sstore\n    /* \"src/pages/try-catch/TryCatch.sol\":113:514  contract Foo {... */\n  jump(tag_13)\n    /* \"#utility.yul\":14:304   */\ntag_3:\n    /* \"#utility.yul\":84:90   */\n  0x00\n    /* \"#utility.yul\":137:139   */\n  0x20\n    /* \"#utility.yul\":125:134   */\n  dup3\n    /* \"#utility.yul\":116:123   */\n  dup5\n    /* \"#utility.yul\":112:135   */\n  sub\n    /* \"#utility.yul\":108:140   */\n  slt\n    /* \"#utility.yul\":105:157   */\n  iszero\n  tag_15\n  jumpi\n    /* \"#utility.yul\":153:154   */\n  0x00\n    /* \"#utility.yul\":150:151   */\n  dup1\n    /* \"#utility.yul\":143:155   */\n  revert\n    /* \"#utility.yul\":105:157   */\ntag_15:\n    /* \"#utility.yul\":179:195   */\n  dup2\n  mload\n  sub(shl(0xa0, 0x01), 0x01)\n    /* \"#utility.yul\":224:255   */\n  dup2\n  and\n    /* \"#utility.yul\":214:256   */\n  dup2\n  eq\n    /* \"#utility.yul\":204:274   */\n  tag_16\n  jumpi\n    /* \"#utility.yul\":270:271   */\n  0x00\n    /* \"#utility.yul\":267:268   */\n  dup1\n    /* \"#utility.yul\":260:272   */\n  revert\n    /* \"#utility.yul\":204:274   */\ntag_16:\n    /* \"#utility.yul\":293:298   */\n  swap4\n    /* \"#utility.yul\":14:304   */\n  swap3\n  pop\n  pop\n  pop\n  jump\t// out\n    /* \"#utility.yul\":653:780   */\ntag_11:\n    /* \"#utility.yul\":714:724   */\n  0x4e487b71\n    /* \"#utility.yul\":709:712   */\n  0xe0\n    /* \"#utility.yul\":705:725   */\n  shl\n    /* \"#utility.yul\":702:703   */\n  0x00\n    /* \"#utility.yul\":695:726   */\n  mstore\n    /* \"#utility.yul\":745:749   */\n  0x01\n    /* \"#utility.yul\":742:743   */\n  0x04\n    /* \"#utility.yul\":735:750   */\n  mstore\n    /* \"#utility.yul\":769:773   */\n  0x24\n    /* \"#utility.yul\":766:767   */\n  0x00\n    /* \"#utility.yul\":759:774   */\n  revert\n    /* \"#utility.yul\":653:780   */\ntag_13:\n    /* \"src/pages/try-catch/TryCatch.sol\":113:514  contract Foo {... */\n  dataSize(sub_0)\n  dup1\n  dataOffset(sub_0)\n  0x00\n  codecopy\n  0x00\n  return\nstop\n\nsub_0: assembly {\n        /* \"src/pages/try-catch/TryCatch.sol\":113:514  contract Foo {... */\n      mstore(0x40, 0x80)\n      callvalue\n      dup1\n      iszero\n      tag_1\n      jumpi\n      0x00\n      dup1\n      revert\n    tag_1:\n      pop\n      jumpi(tag_2, lt(calldatasize, 0x04))\n      shr(0xe0, calldataload(0x00))\n      dup1\n      0x8da5cb5b\n      eq\n      tag_3\n      jumpi\n      dup1\n      0xa9bf5633\n      eq\n      tag_4\n      jumpi\n    tag_2:\n      0x00\n      dup1\n      revert\n        /* \"src/pages/try-catch/TryCatch.sol\":133:153  address public owner */\n    tag_3:\n      sload(0x00)\n      tag_5\n      swap1\n      sub(shl(0xa0, 0x01), 0x01)\n      and\n      dup2\n      jump\n    tag_5:\n      mload(0x40)\n      sub(shl(0xa0, 0x01), 0x01)\n        /* \"#utility.yul\":178:210   */\n      swap1\n      swap2\n      and\n        /* \"#utility.yul\":160:211   */\n      dup2\n      mstore\n        /* \"#utility.yul\":148:150   */\n      0x20\n        /* \"#utility.yul\":133:151   */\n      add\n        /* \"src/pages/try-catch/TryCatch.sol\":133:153  address public owner */\n    tag_7:\n      mload(0x40)\n      dup1\n      swap2\n      sub\n      swap1\n      return\n        /* \"src/pages/try-catch/TryCatch.sol\":361:511  function myFunc(uint x) public pure returns (string memory) {... */\n    tag_4:\n      tag_9\n      tag_10\n      calldatasize\n      0x04\n      tag_11\n      jump\t// in\n    tag_10:\n      tag_12\n      jump\t// in\n    tag_9:\n      mload(0x40)\n      tag_7\n      swap2\n      swap1\n      tag_14\n      jump\t// in\n    tag_12:\n        /* \"src/pages/try-catch/TryCatch.sol\":406:419  string memory */\n      0x60\n        /* \"src/pages/try-catch/TryCatch.sol\":440:441  x */\n      dup2\n        /* \"src/pages/try-catch/TryCatch.sol\":445:446  0 */\n      0x00\n        /* \"src/pages/try-catch/TryCatch.sol\":440:446  x != 0 */\n      sub\n        /* \"src/pages/try-catch/TryCatch.sol\":432:465  require(x != 0, \"require failed\") */\n      tag_16\n      jumpi\n      mload(0x40)\n      shl(0xe5, 0x461bcd)\n      dup2\n      mstore\n        /* \"#utility.yul\":1162:1164   */\n      0x20\n        /* \"src/pages/try-catch/TryCatch.sol\":432:465  require(x != 0, \"require failed\") */\n      0x04\n      dup3\n      add\n        /* \"#utility.yul\":1144:1165   */\n      mstore\n        /* \"#utility.yul\":1201:1203   */\n      0x0e\n        /* \"#utility.yul\":1181:1199   */\n      0x24\n      dup3\n      add\n        /* \"#utility.yul\":1174:1204   */\n      mstore\n      shl(0x92, 0x1c995c5d5a5c994819985a5b1959)\n        /* \"#utility.yul\":1220:1238   */\n      0x44\n      dup3\n      add\n        /* \"#utility.yul\":1213:1257   */\n      mstore\n        /* \"#utility.yul\":1274:1292   */\n      0x64\n      add\n        /* \"src/pages/try-catch/TryCatch.sol\":432:465  require(x != 0, \"require failed\") */\n      mload(0x40)\n      dup1\n      swap2\n      sub\n      swap1\n      revert\n    tag_16:\n      pop\n      pop\n        /* \"src/pages/try-catch/TryCatch.sol\":476:503  return \"my func was called\" */\n      0x40\n      dup1\n      mload\n      dup1\n      dup3\n      add\n      swap1\n      swap2\n      mstore\n      0x12\n      dup2\n      mstore\n      shl(0x72, 0x1b5e48199d5b98c81dd85cc818d85b1b1959)\n      0x20\n      dup3\n      add\n      mstore\n      swap1\n        /* \"src/pages/try-catch/TryCatch.sol\":361:511  function myFunc(uint x) public pure returns (string memory) {... */\n      jump\t// out\n        /* \"#utility.yul\":222:402   */\n    tag_11:\n        /* \"#utility.yul\":281:287   */\n      0x00\n        /* \"#utility.yul\":334:336   */\n      0x20\n        /* \"#utility.yul\":322:331   */\n      dup3\n        /* \"#utility.yul\":313:320   */\n      dup5\n        /* \"#utility.yul\":309:332   */\n      sub\n        /* \"#utility.yul\":305:337   */\n      slt\n        /* \"#utility.yul\":302:354   */\n      iszero\n      tag_22\n      jumpi\n        /* \"#utility.yul\":350:351   */\n      0x00\n        /* \"#utility.yul\":347:348   */\n      dup1\n        /* \"#utility.yul\":340:352   */\n      revert\n        /* \"#utility.yul\":302:354   */\n    tag_22:\n      pop\n        /* \"#utility.yul\":373:396   */\n      calldataload\n      swap2\n        /* \"#utility.yul\":222:402   */\n      swap1\n      pop\n      jump\t// out\n        /* \"#utility.yul\":407:955   */\n    tag_14:\n        /* \"#utility.yul\":519:523   */\n      0x00\n        /* \"#utility.yul\":548:550   */\n      0x20\n        /* \"#utility.yul\":577:579   */\n      dup1\n        /* \"#utility.yul\":566:575   */\n      dup4\n        /* \"#utility.yul\":559:580   */\n      mstore\n        /* \"#utility.yul\":609:615   */\n      dup4\n        /* \"#utility.yul\":603:616   */\n      mload\n        /* \"#utility.yul\":652:658   */\n      dup1\n        /* \"#utility.yul\":647:649   */\n      dup3\n        /* \"#utility.yul\":636:645   */\n      dup6\n        /* \"#utility.yul\":632:650   */\n      add\n        /* \"#utility.yul\":625:659   */\n      mstore\n        /* \"#utility.yul\":677:678   */\n      0x00\n        /* \"#utility.yul\":687:827   */\n    tag_24:\n        /* \"#utility.yul\":701:707   */\n      dup2\n        /* \"#utility.yul\":698:699   */\n      dup2\n        /* \"#utility.yul\":695:708   */\n      lt\n        /* \"#utility.yul\":687:827   */\n      iszero\n      tag_26\n      jumpi\n        /* \"#utility.yul\":796:810   */\n      dup6\n      dup2\n      add\n        /* \"#utility.yul\":792:815   */\n      dup4\n      add\n        /* \"#utility.yul\":786:816   */\n      mload\n        /* \"#utility.yul\":762:779   */\n      dup6\n      dup3\n      add\n        /* \"#utility.yul\":781:783   */\n      0x40\n        /* \"#utility.yul\":758:784   */\n      add\n        /* \"#utility.yul\":751:817   */\n      mstore\n        /* \"#utility.yul\":716:726   */\n      dup3\n      add\n        /* \"#utility.yul\":687:827   */\n      jump(tag_24)\n    tag_26:\n        /* \"#utility.yul\":691:694   */\n      pop\n        /* \"#utility.yul\":876:877   */\n      0x00\n        /* \"#utility.yul\":871:873   */\n      0x40\n        /* \"#utility.yul\":862:868   */\n      dup3\n        /* \"#utility.yul\":851:860   */\n      dup7\n        /* \"#utility.yul\":847:869   */\n      add\n        /* \"#utility.yul\":843:874   */\n      add\n        /* \"#utility.yul\":836:878   */\n      mstore\n        /* \"#utility.yul\":946:948   */\n      0x40\n        /* \"#utility.yul\":939:941   */\n      0x1f\n        /* \"#utility.yul\":935:942   */\n      not\n        /* \"#utility.yul\":930:932   */\n      0x1f\n        /* \"#utility.yul\":922:928   */\n      dup4\n        /* \"#utility.yul\":918:933   */\n      add\n        /* \"#utility.yul\":914:943   */\n      and\n        /* \"#utility.yul\":903:912   */\n      dup6\n        /* \"#utility.yul\":899:944   */\n      add\n        /* \"#utility.yul\":895:949   */\n      add\n        /* \"#utility.yul\":887:949   */\n      swap3\n      pop\n      pop\n      pop\n        /* \"#utility.yul\":407:955   */\n      swap3\n      swap2\n      pop\n      pop\n      jump\t// out\n\n    auxdata: 0xa2646970667358221220d57677df7eea5c87b27fde658f9b773c6b913b4c0f80a6668ff22854ca0b806f64736f6c63430008150033\n}\n",
				"bytecode": {
					"linkReferences": {},
					"object": "608060405234801561000f575f80fd5b5060405161029838038061029883398101604081905261002e916100b7565b6001600160a01b03811661007a5760405162461bcd60e51b815260206004820152600f60248201526e696e76616c6964206164647265737360881b604482015260640160405180910390fd5b6001600160a01b038116600103610093576100936100e4565b5f80546001600160a01b0319166001600160a01b03929092169190911790556100f8565b5f602082840312156100c7575f80fd5b81516001600160a01b03811681146100dd575f80fd5b9392505050565b634e487b7160e01b5f52600160045260245ffd5b610193806101055f395ff3fe608060405234801561000f575f80fd5b5060043610610034575f3560e01c80638da5cb5b14610038578063a9bf563314610067575b5f80fd5b5f5461004a906001600160a01b031681565b6040516001600160a01b0390911681526020015b60405180910390f35b61007a6100753660046100fb565b610087565b60405161005e9190610112565b6060815f036100cd5760405162461bcd60e51b815260206004820152600e60248201526d1c995c5d5a5c994819985a5b195960921b604482015260640160405180910390fd5b50506040805180820190915260128152711b5e48199d5b98c81dd85cc818d85b1b195960721b602082015290565b5f6020828403121561010b575f80fd5b5035919050565b5f6020808352835180828501525f5b8181101561013d57858101830151858201604001528201610121565b505f604082860101526040601f19601f830116850101925050509291505056fea2646970667358221220d57677df7eea5c87b27fde658f9b773c6b913b4c0f80a6668ff22854ca0b806f64736f6c63430008150033",
					"opcodes": "PUSH1 0x80 PUSH1 0x40 MSTORE CALLVALUE DUP1 ISZERO PUSH2 0xF JUMPI PUSH0 DUP1 REVERT JUMPDEST POP PUSH1 0x40 MLOAD PUSH2 0x298 CODESIZE SUB DUP1 PUSH2 0x298 DUP4 CODECOPY DUP2 ADD PUSH1 0x40 DUP2 SWAP1 MSTORE PUSH2 0x2E SWAP2 PUSH2 0xB7 JUMP JUMPDEST PUSH1 0x1 PUSH1 0x1 PUSH1 0xA0 SHL SUB DUP2 AND PUSH2 0x7A JUMPI PUSH1 0x40 MLOAD PUSH3 0x461BCD PUSH1 0xE5 SHL DUP2 MSTORE PUSH1 0x20 PUSH1 0x4 DUP3 ADD MSTORE PUSH1 0xF PUSH1 0x24 DUP3 ADD MSTORE PUSH15 0x696E76616C69642061646472657373 PUSH1 0x88 SHL PUSH1 0x44 DUP3 ADD MSTORE PUSH1 0x64 ADD PUSH1 0x40 MLOAD DUP1 SWAP2 SUB SWAP1 REVERT JUMPDEST PUSH1 0x1 PUSH1 0x1 PUSH1 0xA0 SHL SUB DUP2 AND PUSH1 0x1 SUB PUSH2 0x93 JUMPI PUSH2 0x93 PUSH2 0xE4 JUMP JUMPDEST PUSH0 DUP1 SLOAD PUSH1 0x1 PUSH1 0x1 PUSH1 0xA0 SHL SUB NOT AND PUSH1 0x1 PUSH1 0x1 PUSH1 0xA0 SHL SUB SWAP3 SWAP1 SWAP3 AND SWAP2 SWAP1 SWAP2 OR SWAP1 SSTORE PUSH2 0xF8 JUMP JUMPDEST PUSH0 PUSH1 0x20 DUP3 DUP5 SUB SLT ISZERO PUSH2 0xC7 JUMPI PUSH0 DUP1 REVERT JUMPDEST DUP2 MLOAD PUSH1 0x1 PUSH1 0x1 PUSH1 0xA0 SHL SUB DUP2 AND DUP2 EQ PUSH2 0xDD JUMPI PUSH0 DUP1 REVERT JUMPDEST SWAP4 SWAP3 POP POP POP JUMP JUMPDEST PUSH4 0x4E487B71 PUSH1 0xE0 SHL PUSH0 MSTORE PUSH1 0x1 PUSH1 0x4 MSTORE PUSH1 0x24 PUSH0 REVERT JUMPDEST PUSH2 0x193 DUP1 PUSH2 0x105 PUSH0 CODECOPY PUSH0 RETURN INVALID PUSH1 0x80 PUSH1 0x40 MSTORE CALLVALUE DUP1 ISZERO PUSH2 0xF JUMPI PUSH0 DUP1 REVERT JUMPDEST POP PUSH1 0x4 CALLDATASIZE LT PUSH2 0x34 JUMPI PUSH0 CALLDATALOAD PUSH1 0xE0 SHR DUP1 PUSH4 0x8DA5CB5B EQ PUSH2 0x38 JUMPI DUP1 PUSH4 0xA9BF5633 EQ PUSH2 0x67 JUMPI JUMPDEST PUSH0 DUP1 REVERT JUMPDEST PUSH0 SLOAD PUSH2 0x4A SWAP1 PUSH1 0x1 PUSH1 0x1 PUSH1 0xA0 SHL SUB AND DUP2 JUMP JUMPDEST PUSH1 0x40 MLOAD PUSH1 0x1 PUSH1 0x1 PUSH1 0xA0 SHL SUB SWAP1 SWAP2 AND DUP2 MSTORE PUSH1 0x20 ADD JUMPDEST PUSH1 0x40 MLOAD DUP1 SWAP2 SUB SWAP1 RETURN JUMPDEST PUSH2 0x7A PUSH2 0x75 CALLDATASIZE PUSH1 0x4 PUSH2 0xFB JUMP JUMPDEST PUSH2 0x87 JUMP JUMPDEST PUSH1 0x40 MLOAD PUSH2 0x5E SWAP2 SWAP1 PUSH2 0x112 JUMP JUMPDEST PUSH1 0x60 DUP2 PUSH0 SUB PUSH2 0xCD JUMPI PUSH1 0x40 MLOAD PUSH3 0x461BCD PUSH1 0xE5 SHL DUP2 MSTORE PUSH1 0x20 PUSH1 0x4 DUP3 ADD MSTORE PUSH1 0xE PUSH1 0x24 DUP3 ADD MSTORE PUSH14 0x1C995C5D5A5C994819985A5B1959 PUSH1 0x92 SHL PUSH1 0x44 DUP3 ADD MSTORE PUSH1 0x64 ADD PUSH1 0x40 MLOAD DUP1 SWAP2 SUB SWAP1 REVERT JUMPDEST POP POP PUSH1 0x40 DUP1 MLOAD DUP1 DUP3 ADD SWAP1 SWAP2 MSTORE PUSH1 0x12 DUP2 MSTORE PUSH18 0x1B5E48199D5B98C81DD85CC818D85B1B1959 PUSH1 0x72 SHL PUSH1 0x20 DUP3 ADD MSTORE SWAP1 JUMP JUMPDEST PUSH0 PUSH1 0x20 DUP3 DUP5 SUB SLT ISZERO PUSH2 0x10B JUMPI PUSH0 DUP1 REVERT JUMPDEST POP CALLDATALOAD SWAP2 SWAP1 POP JUMP JUMPDEST PUSH0 PUSH1 0x20 DUP1 DUP4 MSTORE DUP4 MLOAD DUP1 DUP3 DUP6 ADD MSTORE PUSH0 JUMPDEST DUP2 DUP2 LT ISZERO PUSH2 0x13D JUMPI DUP6 DUP2 ADD DUP4 ADD MLOAD DUP6 DUP3 ADD PUSH1 0x40 ADD MSTORE DUP3 ADD PUSH2 0x121 JUMP JUMPDEST POP PUSH0 PUSH1 0x40 DUP3 DUP7 ADD ADD MSTORE PUSH1 0x40 PUSH1 0x1F NOT PUSH1 0x1F DUP4 ADD AND DUP6 ADD ADD SWAP3 POP POP POP SWAP3 SWAP2 POP POP JUMP INVALID LOG2 PUSH5 0x6970667358 0x22 SLT KECCAK256 0xD5 PUSH23 0x77DF7EEA5C87B27FDE658F9B773C6B913B4C0F80A6668F CALLCODE 0x28 SLOAD 0xCA SIGNEXTEND DUP1 PUSH16 0x64736F6C634300081500330000000000 "
				},
				"gasEstimates": {
					"creation": {
						"codeDepositCost": "80600",
						"executionCost": "infinite",
						"totalCost": "infinite"
					},
					"external": {
						"myFunc(uint256)": "infinite",
						"owner()": "2302"
					}
				},
				"methodIdentifiers": {
					"myFunc(uint256)": "a9bf5633",
					"owner()": "8da5cb5b"
				}
			},
			"storageLayout": {
				"storage": [
					{
						"astId": 3,
						"contract": "src/pages/try-catch/TryCatch.sol:Foo",
						"label": "owner",
						"offset": 0,
						"slot": "0",
						"type": "t_address"
					}
				],
				"types": {
					"t_address": {
						"encoding": "inplace",
						"label": "address",
						"numberOfBytes": "20"
					}
				}
			},
			"userdoc": {
				"kind": "user",
				"methods": {},
				"version": 1
			}
		}
	}
}