{
	"data": {
		"bytecode": {
			"linkReferences": {},
			"object": "60806040525f805461ffff19166101011790556101c86001819055607b6002556003805460ff60ff19909116179055600455607a19600555600160ff1b6006556001600160ff1b03600755600880546001600160b01b0319167556b5ca35b7d915458ef540ade6068dfe2f44e8fa733c17905534801561007d575f80fd5b506102298061008b5f395ff3fe608060405234801561000f575f80fd5b50600436106100e5575f3560e01c80637a4c257111610088578063ab3a58a311610063578063ab3a58a3146101ab578063c6a898c5146101ce578063e5aa3d58146101d7578063f2427d37146101e0575f80fd5b80637a4c25711461017b5780637e4e14cc14610184578063921cda741461018d575f80fd5b80634b3df200116100c35780634b3df200146101325780634c27fd621461013e5780635abe622b14610147578063767800de14610150575f80fd5b8063074eef3f146100e95780631570c2cb14610112578063459b1acf14610129575b5f80fd5b6008546100fd90600160b01b900460ff1681565b60405190151581526020015b60405180910390f35b61011b60095481565b604051908152602001610109565b61011b60015481565b5f546100fd9060ff1681565b61011b60045481565b61011b600a5481565b600854610163906001600160a01b031681565b6040516001600160a01b039091168152602001610109565b61011b60075481565b61011b60065481565b600354610199905f0b81565b6040515f9190910b8152602001610109565b5f546101bc90610100900460ff1681565b60405160ff9091168152602001610109565b61011b60025481565b61011b60055481565b600b54610163906001600160a01b03168156fea26469706673582212206cd877cebd721b072eb3ca52d976133424d2e85394bbae88cc0464f90ee49fd264736f6c63430008140033",
			"opcodes": "PUSH1 0x80 PUSH1 0x40 MSTORE PUSH0 DUP1 SLOAD PUSH2 0xFFFF NOT AND PUSH2 0x101 OR SWAP1 SSTORE PUSH2 0x1C8 PUSH1 0x1 DUP2 SWAP1 SSTORE PUSH1 0x7B PUSH1 0x2 SSTORE PUSH1 0x3 DUP1 SLOAD PUSH1 0xFF PUSH1 0xFF NOT SWAP1 SWAP2 AND OR SWAP1 SSTORE PUSH1 0x4 SSTORE PUSH1 0x7A NOT PUSH1 0x5 SSTORE PUSH1 0x1 PUSH1 0xFF SHL PUSH1 0x6 SSTORE PUSH1 0x1 PUSH1 0x1 PUSH1 0xFF SHL SUB PUSH1 0x7 SSTORE PUSH1 0x8 DUP1 SLOAD PUSH1 0x1 PUSH1 0x1 PUSH1 0xB0 SHL SUB NOT AND PUSH22 0x56B5CA35B7D915458EF540ADE6068DFE2F44E8FA733C OR SWAP1 SSTORE CALLVALUE DUP1 ISZERO PUSH2 0x7D JUMPI PUSH0 DUP1 REVERT JUMPDEST POP PUSH2 0x229 DUP1 PUSH2 0x8B PUSH0 CODECOPY PUSH0 RETURN INVALID PUSH1 0x80 PUSH1 0x40 MSTORE CALLVALUE DUP1 ISZERO PUSH2 0xF JUMPI PUSH0 DUP1 REVERT JUMPDEST POP PUSH1 0x4 CALLDATASIZE LT PUSH2 0xE5 JUMPI PUSH0 CALLDATALOAD PUSH1 0xE0 SHR DUP1 PUSH4 0x7A4C2571 GT PUSH2 0x88 JUMPI DUP1 PUSH4 0xAB3A58A3 GT PUSH2 0x63 JUMPI DUP1 PUSH4 0xAB3A58A3 EQ PUSH2 0x1AB JUMPI DUP1 PUSH4 0xC6A898C5 EQ PUSH2 0x1CE JUMPI DUP1 PUSH4 0xE5AA3D58 EQ PUSH2 0x1D7 JUMPI DUP1 PUSH4 0xF2427D37 EQ PUSH2 0x1E0 JUMPI PUSH0 DUP1 REVERT JUMPDEST DUP1 PUSH4 0x7A4C2571 EQ PUSH2 0x17B JUMPI DUP1 PUSH4 0x7E4E14CC EQ PUSH2 0x184 JUMPI DUP1 PUSH4 0x921CDA74 EQ PUSH2 0x18D JUMPI PUSH0 DUP1 REVERT JUMPDEST DUP1 PUSH4 0x4B3DF200 GT PUSH2 0xC3 JUMPI DUP1 PUSH4 0x4B3DF200 EQ PUSH2 0x132 JUMPI DUP1 PUSH4 0x4C27FD62 EQ PUSH2 0x13E JUMPI DUP1 PUSH4 0x5ABE622B EQ PUSH2 0x147 JUMPI DUP1 PUSH4 0x767800DE EQ PUSH2 0x150 JUMPI PUSH0 DUP1 REVERT JUMPDEST DUP1 PUSH4 0x74EEF3F EQ PUSH2 0xE9 JUMPI DUP1 PUSH4 0x1570C2CB EQ PUSH2 0x112 JUMPI DUP1 PUSH4 0x459B1ACF EQ PUSH2 0x129 JUMPI JUMPDEST PUSH0 DUP1 REVERT JUMPDEST PUSH1 0x8 SLOAD PUSH2 0xFD SWAP1 PUSH1 0x1 PUSH1 0xB0 SHL SWAP1 DIV PUSH1 0xFF AND DUP2 JUMP JUMPDEST PUSH1 0x40 MLOAD SWAP1 ISZERO ISZERO DUP2 MSTORE PUSH1 0x20 ADD JUMPDEST PUSH1 0x40 MLOAD DUP1 SWAP2 SUB SWAP1 RETURN JUMPDEST PUSH2 0x11B PUSH1 0x9 SLOAD DUP2 JUMP JUMPDEST PUSH1 0x40 MLOAD SWAP1 DUP2 MSTORE PUSH1 0x20 ADD PUSH2 0x109 JUMP JUMPDEST PUSH2 0x11B PUSH1 0x1 SLOAD DUP2 JUMP JUMPDEST PUSH0 SLOAD PUSH2 0xFD SWAP1 PUSH1 0xFF AND DUP2 JUMP JUMPDEST PUSH2 0x11B PUSH1 0x4 SLOAD DUP2 JUMP JUMPDEST PUSH2 0x11B PUSH1 0xA SLOAD DUP2 JUMP JUMPDEST PUSH1 0x8 SLOAD PUSH2 0x163 SWAP1 PUSH1 0x1 PUSH1 0x1 PUSH1 0xA0 SHL SUB AND DUP2 JUMP JUMPDEST PUSH1 0x40 MLOAD PUSH1 0x1 PUSH1 0x1 PUSH1 0xA0 SHL SUB SWAP1 SWAP2 AND DUP2 MSTORE PUSH1 0x20 ADD PUSH2 0x109 JUMP JUMPDEST PUSH2 0x11B PUSH1 0x7 SLOAD DUP2 JUMP JUMPDEST PUSH2 0x11B PUSH1 0x6 SLOAD DUP2 JUMP JUMPDEST PUSH1 0x3 SLOAD PUSH2 0x199 SWAP1 PUSH0 SIGNEXTEND DUP2 JUMP JUMPDEST PUSH1 0x40 MLOAD PUSH0 SWAP2 SWAP1 SWAP2 SIGNEXTEND DUP2 MSTORE PUSH1 0x20 ADD PUSH2 0x109 JUMP JUMPDEST PUSH0 SLOAD PUSH2 0x1BC SWAP1 PUSH2 0x100 SWAP1 DIV PUSH1 0xFF AND DUP2 JUMP JUMPDEST PUSH1 0x40 MLOAD PUSH1 0xFF SWAP1 SWAP2 AND DUP2 MSTORE PUSH1 0x20 ADD PUSH2 0x109 JUMP JUMPDEST PUSH2 0x11B PUSH1 0x2 SLOAD DUP2 JUMP JUMPDEST PUSH2 0x11B PUSH1 0x5 SLOAD DUP2 JUMP JUMPDEST PUSH1 0xB SLOAD PUSH2 0x163 SWAP1 PUSH1 0x1 PUSH1 0x1 PUSH1 0xA0 SHL SUB AND DUP2 JUMP INVALID LOG2 PUSH5 0x6970667358 0x22 SLT KECCAK256 PUSH13 0xD877CEBD721B072EB3CA52D976 SGT CALLVALUE 0x24 0xD2 0xE8 MSTORE8 SWAP5 0xBB 0xAE DUP9 0xCC DIV PUSH5 0xF90EE49FD2 PUSH5 0x736F6C6343 STOP ADDMOD EQ STOP CALLER "
		},
		"gasEstimates": {
			"creation": {
				"codeDepositCost": "110600",
				"executionCost": "205506",
				"totalCost": "316106"
			},
			"external": {
				"addr()": "2425",
				"boo()": "2320",
				"defaultAddr()": "2424",
				"defaultBoo()": "2339",
				"defaultInt()": "2361",
				"defaultUint()": "2340",
				"i()": "2360",
				"i256()": "2339",
				"i8()": "2384",
				"maxInt()": "2317",
				"minInt()": "2339",
				"u()": "2338",
				"u256()": "2362",
				"u8()": "2344"
			}
		},
		"methodIdentifiers": {
			"addr()": "767800de",
			"boo()": "4b3df200",
			"defaultAddr()": "f2427d37",
			"defaultBoo()": "074eef3f",
			"defaultInt()": "5abe622b",
			"defaultUint()": "1570c2cb",
			"i()": "e5aa3d58",
			"i256()": "4c27fd62",
			"i8()": "921cda74",
			"maxInt()": "7a4c2571",
			"minInt()": "7e4e14cc",
			"u()": "c6a898c5",
			"u256()": "459b1acf",
			"u8()": "ab3a58a3"
		}
	},
	"abi": [
		{
			"inputs": [],
			"name": "addr",
			"outputs": [
				{
					"internalType": "address",
					"name": "",
					"type": "address"
				}
			],
			"stateMutability": "view",
			"type": "function"
		},
		{
			"inputs": [],
			"name": "boo",
			"outputs": [
				{
					"internalType": "bool",
					"name": "",
					"type": "bool"
				}
			],
			"stateMutability": "view",
			"type": "function"
		},
		{
			"inputs": [],
			"name": "defaultAddr",
			"outputs": [
				{
					"internalType": "address",
					"name": "",
					"type": "address"
				}
			],
			"stateMutability": "view",
			"type": "function"
		},
		{
			"inputs": [],
			"name": "defaultBoo",
			"outputs": [
				{
					"internalType": "bool",
					"name": "",
					"type": "bool"
				}
			],
			"stateMutability": "view",
			"type": "function"
		},
		{
			"inputs": [],
			"name": "defaultInt",
			"outputs": [
				{
					"internalType": "int256",
					"name": "",
					"type": "int256"
				}
			],
			"stateMutability": "view",
			"type": "function"
		},
		{
			"inputs": [],
			"name": "defaultUint",
			"outputs": [
				{
					"internalType": "uint256",
					"name": "",
					"type": "uint256"
				}
			],
			"stateMutability": "view",
			"type": "function"
		},
		{
			"inputs": [],
			"name": "i",
			"outputs": [
				{
					"internalType": "int256",
					"name": "",
					"type": "int256"
				}
			],
			"stateMutability": "view",
			"type": "function"
		},
		{
			"inputs": [],
			"name": "i256",
			"outputs": [
				{
					"internalType": "int256",
					"name": "",
					"type": "int256"
				}
			],
			"stateMutability": "view",
			"type": "function"
		},
		{
			"inputs": [],
			"name": "i8",
			"outputs": [
				{
					"internalType": "int8",
					"name": "",
					"type": "int8"
				}
			],
			"stateMutability": "view",
			"type": "function"
		},
		{
			"inputs": [],
			"name": "maxInt",
			"outputs": [
				{
					"internalType": "int256",
					"name": "",
					"type": "int256"
				}
			],
			"stateMutability": "view",
			"type": "function"
		},
		{
			"inputs": [],
			"name": "minInt",
			"outputs": [
				{
					"internalType": "int256",
					"name": "",
					"type": "int256"
				}
			],
			"stateMutability": "view",
			"type": "function"
		},
		{
			"inputs": [],
			"name": "u",
			"outputs": [
				{
					"internalType": "uint256",
					"name": "",
					"type": "uint256"
				}
			],
			"stateMutability": "view",
			"type": "function"
		},
		{
			"inputs": [],
			"name": "u256",
			"outputs": [
				{
					"internalType": "uint256",
					"name": "",
					"type": "uint256"
				}
			],
			"stateMutability": "view",
			"type": "function"
		},
		{
			"inputs": [],
			"name": "u8",
			"outputs": [
				{
					"internalType": "uint8",
					"name": "",
					"type": "uint8"
				}
			],
			"stateMutability": "view",
			"type": "function"
		}
	]
}