{
	"src/pages/call/Call.sol": {
		"Caller": {
			"abi": [
				{
					"anonymous": false,
					"inputs": [
						{
							"indexed": false,
							"internalType": "bool",
							"name": "success",
							"type": "bool"
						},
						{
							"indexed": false,
							"internalType": "bytes",
							"name": "data",
							"type": "bytes"
						}
					],
					"name": "Response",
					"type": "event"
				},
				{
					"inputs": [
						{
							"internalType": "address payable",
							"name": "_addr",
							"type": "address"
						}
					],
					"name": "testCallDoesNotExist",
					"outputs": [],
					"stateMutability": "payable",
					"type": "function"
				},
				{
					"inputs": [
						{
							"internalType": "address payable",
							"name": "_addr",
							"type": "address"
						}
					],
					"name": "testCallFoo",
					"outputs": [],
					"stateMutability": "payable",
					"type": "function"
				}
			],
			"devdoc": {
				"kind": "dev",
				"methods": {},
				"version": 1
			},
			"evm": {
				"assembly": "    /* \"src/pages/call/Call.sol\":451:1398  contract Caller {... */\n  mstore(0x40, 0x80)\n  callvalue\n  dup1\n  iszero\n  tag_1\n  jumpi\n  0x00\n  dup1\n  revert\ntag_1:\n  pop\n  dataSize(sub_0)\n  dup1\n  dataOffset(sub_0)\n  0x00\n  codecopy\n  0x00\n  return\nstop\n\nsub_0: assembly {\n        /* \"src/pages/call/Call.sol\":451:1398  contract Caller {... */\n      mstore(0x40, 0x80)\n      jumpi(tag_1, lt(calldatasize, 0x04))\n      shr(0xe0, calldataload(0x00))\n      dup1\n      0x87ba6179\n      eq\n      tag_2\n      jumpi\n      dup1\n      0xff00726c\n      eq\n      tag_3\n      jumpi\n    tag_1:\n      0x00\n      dup1\n      revert\n        /* \"src/pages/call/Call.sol\":705:1049  function testCallFoo(address payable _addr) public payable {... */\n    tag_2:\n      tag_4\n      tag_5\n      calldatasize\n      0x04\n      tag_6\n      jump\t// in\n    tag_5:\n      tag_7\n      jump\t// in\n    tag_4:\n      stop\n        /* \"src/pages/call/Call.sol\":1136:1395  function testCallDoesNotExist(address payable _addr) public payable {... */\n    tag_3:\n      tag_4\n      tag_9\n      calldatasize\n      0x04\n      tag_6\n      jump\t// in\n    tag_9:\n      tag_10\n      jump\t// in\n        /* \"src/pages/call/Call.sol\":705:1049  function testCallFoo(address payable _addr) public payable {... */\n    tag_7:\n        /* \"src/pages/call/Call.sol\":928:989  abi.encodeWithSignature(\"foo(string,uint256)\", \"call foo\", 1) */\n      0x40\n      dup1\n      mload\n      0x24\n      dup2\n      add\n        /* \"#utility.yul\":531:552   */\n      swap2\n      swap1\n      swap2\n      mstore\n        /* \"#utility.yul\":588:589   */\n      0x08\n        /* \"#utility.yul\":568:586   */\n      0x64\n      dup3\n      add\n        /* \"#utility.yul\":561:590   */\n      mstore\n      shl(0xc0, 0x63616c6c20666f6f)\n        /* \"#utility.yul\":606:624   */\n      0x84\n      dup3\n      add\n        /* \"#utility.yul\":599:637   */\n      mstore\n        /* \"src/pages/call/Call.sol\":987:988  1 */\n      0x01\n        /* \"#utility.yul\":689:709   */\n      0x44\n      dup3\n      add\n        /* \"#utility.yul\":682:729   */\n      mstore\n        /* \"src/pages/call/Call.sol\":839:851  bool success */\n      0x00\n      swap1\n      dup2\n      swap1\n      sub(shl(0xa0, 0x01), 0x01)\n        /* \"src/pages/call/Call.sol\":874:884  _addr.call */\n      dup5\n      and\n      swap1\n        /* \"src/pages/call/Call.sol\":908:912  5000 */\n      0x1388\n      swap1\n        /* \"src/pages/call/Call.sol\":892:901  msg.value */\n      callvalue\n      swap1\n        /* \"#utility.yul\":654:673   */\n      0xa4\n      add\n        /* \"src/pages/call/Call.sol\":928:989  abi.encodeWithSignature(\"foo(string,uint256)\", \"call foo\", 1) */\n      0x40\n      dup1\n      mload\n      not(0x1f)\n      dup2\n      dup5\n      sub\n      add\n      dup2\n      mstore\n      swap2\n      dup2\n      mstore\n      0x20\n      dup3\n      add\n      dup1\n      mload\n      sub(shl(0xe0, 0x01), 0x01)\n      and\n      shl(0xe0, 0x24ccab8f)\n      or\n      swap1\n      mstore\n        /* \"src/pages/call/Call.sol\":874:1000  _addr.call{value: msg.value, gas: 5000}(... */\n      mload\n      tag_14\n      swap2\n        /* \"src/pages/call/Call.sol\":928:989  abi.encodeWithSignature(\"foo(string,uint256)\", \"call foo\", 1) */\n      swap1\n        /* \"src/pages/call/Call.sol\":874:1000  _addr.call{value: msg.value, gas: 5000}(... */\n      tag_15\n      jump\t// in\n    tag_14:\n      0x00\n      mload(0x40)\n      dup1\n      dup4\n      sub\n      dup2\n      dup6\n      dup9\n      dup9\n      call\n      swap4\n      pop\n      pop\n      pop\n      pop\n      returndatasize\n      dup1\n      0x00\n      dup2\n      eq\n      tag_18\n      jumpi\n      mload(0x40)\n      swap2\n      pop\n      and(add(returndatasize, 0x3f), not(0x1f))\n      dup3\n      add\n      0x40\n      mstore\n      returndatasize\n      dup3\n      mstore\n      returndatasize\n      0x00\n      0x20\n      dup5\n      add\n      returndatacopy\n      jump(tag_17)\n    tag_18:\n      0x60\n      swap2\n      pop\n    tag_17:\n      pop\n        /* \"src/pages/call/Call.sol\":838:1000  (bool success, bytes memory data) = _addr.call{value: msg.value, gas: 5000}(... */\n      swap2\n      pop\n      swap2\n      pop\n        /* \"src/pages/call/Call.sol\":1018:1041  Response(success, data) */\n      0x13848c3e38f8886f3f5d2ad9dff80d8092c2bbb8efd5b887a99c2c6cfc09ac2a\n        /* \"src/pages/call/Call.sol\":1027:1034  success */\n      dup3\n        /* \"src/pages/call/Call.sol\":1036:1040  data */\n      dup3\n        /* \"src/pages/call/Call.sol\":1018:1041  Response(success, data) */\n      mload(0x40)\n      tag_19\n      swap3\n      swap2\n      swap1\n      tag_20\n      jump\t// in\n    tag_19:\n      mload(0x40)\n      dup1\n      swap2\n      sub\n      swap1\n      log1\n        /* \"src/pages/call/Call.sol\":764:1049  {... */\n      pop\n      pop\n        /* \"src/pages/call/Call.sol\":705:1049  function testCallFoo(address payable _addr) public payable {... */\n      pop\n      jump\t// out\n        /* \"src/pages/call/Call.sol\":1136:1395  function testCallDoesNotExist(address payable _addr) public payable {... */\n    tag_10:\n        /* \"src/pages/call/Call.sol\":1294:1335  abi.encodeWithSignature(\"doesNotExist()\") */\n      0x40\n      dup1\n      mload\n      0x04\n      dup2\n      mstore\n      0x24\n      dup2\n      add\n      dup3\n      mstore\n      0x20\n      dup2\n      add\n      dup1\n      mload\n      sub(shl(0xe0, 0x01), 0x01)\n      and\n      shl(0xe1, 0x0ee642d7)\n      or\n      swap1\n      mstore\n        /* \"src/pages/call/Call.sol\":1251:1346  _addr.call{value: msg.value}(... */\n      swap1\n      mload\n        /* \"src/pages/call/Call.sol\":1216:1228  bool success */\n      0x00\n      swap2\n      dup3\n      swap2\n      sub(shl(0xa0, 0x01), 0x01)\n        /* \"src/pages/call/Call.sol\":1251:1261  _addr.call */\n      dup6\n      and\n      swap2\n        /* \"src/pages/call/Call.sol\":1269:1278  msg.value */\n      callvalue\n      swap2\n        /* \"src/pages/call/Call.sol\":1251:1346  _addr.call{value: msg.value}(... */\n      tag_22\n      swap2\n        /* \"src/pages/call/Call.sol\":1294:1335  abi.encodeWithSignature(\"doesNotExist()\") */\n      swap1\n        /* \"src/pages/call/Call.sol\":1251:1346  _addr.call{value: msg.value}(... */\n      tag_15\n      jump\t// in\n    tag_22:\n      0x00\n      mload(0x40)\n      dup1\n      dup4\n      sub\n      dup2\n      dup6\n      dup8\n      gas\n      call\n      swap3\n      pop\n      pop\n      pop\n      returndatasize\n      dup1\n      0x00\n      dup2\n      eq\n      tag_18\n      jumpi\n      mload(0x40)\n      swap2\n      pop\n      and(add(returndatasize, 0x3f), not(0x1f))\n      dup3\n      add\n      0x40\n      mstore\n      returndatasize\n      dup3\n      mstore\n      returndatasize\n      0x00\n      0x20\n      dup5\n      add\n      returndatacopy\n      jump(tag_17)\n        /* \"#utility.yul\":14:308   */\n    tag_6:\n        /* \"#utility.yul\":81:87   */\n      0x00\n        /* \"#utility.yul\":134:136   */\n      0x20\n        /* \"#utility.yul\":122:131   */\n      dup3\n        /* \"#utility.yul\":113:120   */\n      dup5\n        /* \"#utility.yul\":109:132   */\n      sub\n        /* \"#utility.yul\":105:137   */\n      slt\n        /* \"#utility.yul\":102:154   */\n      iszero\n      tag_30\n      jumpi\n        /* \"#utility.yul\":150:151   */\n      0x00\n        /* \"#utility.yul\":147:148   */\n      dup1\n        /* \"#utility.yul\":140:152   */\n      revert\n        /* \"#utility.yul\":102:154   */\n    tag_30:\n        /* \"#utility.yul\":176:199   */\n      dup2\n      calldataload\n      sub(shl(0xa0, 0x01), 0x01)\n        /* \"#utility.yul\":228:259   */\n      dup2\n      and\n        /* \"#utility.yul\":218:260   */\n      dup2\n      eq\n        /* \"#utility.yul\":208:278   */\n      tag_31\n      jumpi\n        /* \"#utility.yul\":274:275   */\n      0x00\n        /* \"#utility.yul\":271:272   */\n      dup1\n        /* \"#utility.yul\":264:276   */\n      revert\n        /* \"#utility.yul\":208:278   */\n    tag_31:\n        /* \"#utility.yul\":297:302   */\n      swap4\n        /* \"#utility.yul\":14:308   */\n      swap3\n      pop\n      pop\n      pop\n      jump\t// out\n        /* \"#utility.yul\":740:990   */\n    tag_27:\n        /* \"#utility.yul\":825:826   */\n      0x00\n        /* \"#utility.yul\":835:948   */\n    tag_34:\n        /* \"#utility.yul\":849:855   */\n      dup4\n        /* \"#utility.yul\":846:847   */\n      dup2\n        /* \"#utility.yul\":843:856   */\n      lt\n        /* \"#utility.yul\":835:948   */\n      iszero\n      tag_36\n      jumpi\n        /* \"#utility.yul\":925:936   */\n      dup2\n      dup2\n      add\n        /* \"#utility.yul\":919:937   */\n      mload\n        /* \"#utility.yul\":906:917   */\n      dup4\n      dup3\n      add\n        /* \"#utility.yul\":899:938   */\n      mstore\n        /* \"#utility.yul\":871:873   */\n      0x20\n        /* \"#utility.yul\":864:874   */\n      add\n        /* \"#utility.yul\":835:948   */\n      jump(tag_34)\n    tag_36:\n      pop\n      pop\n        /* \"#utility.yul\":982:983   */\n      0x00\n        /* \"#utility.yul\":964:980   */\n      swap2\n      add\n        /* \"#utility.yul\":957:984   */\n      mstore\n        /* \"#utility.yul\":740:990   */\n      jump\t// out\n        /* \"#utility.yul\":995:1282   */\n    tag_15:\n        /* \"#utility.yul\":1124:1127   */\n      0x00\n        /* \"#utility.yul\":1162:1168   */\n      dup3\n        /* \"#utility.yul\":1156:1169   */\n      mload\n        /* \"#utility.yul\":1178:1244   */\n      tag_38\n        /* \"#utility.yul\":1237:1243   */\n      dup2\n        /* \"#utility.yul\":1232:1235   */\n      dup5\n        /* \"#utility.yul\":1225:1229   */\n      0x20\n        /* \"#utility.yul\":1217:1223   */\n      dup8\n        /* \"#utility.yul\":1213:1230   */\n      add\n        /* \"#utility.yul\":1178:1244   */\n      tag_27\n      jump\t// in\n    tag_38:\n        /* \"#utility.yul\":1260:1276   */\n      swap2\n      swap1\n      swap2\n      add\n      swap3\n        /* \"#utility.yul\":995:1282   */\n      swap2\n      pop\n      pop\n      jump\t// out\n        /* \"#utility.yul\":1287:1762   */\n    tag_20:\n        /* \"#utility.yul\":1470:1476   */\n      dup3\n        /* \"#utility.yul\":1463:1477   */\n      iszero\n        /* \"#utility.yul\":1456:1478   */\n      iszero\n        /* \"#utility.yul\":1445:1454   */\n      dup2\n        /* \"#utility.yul\":1438:1479   */\n      mstore\n        /* \"#utility.yul\":1515:1517   */\n      0x40\n        /* \"#utility.yul\":1510:1512   */\n      0x20\n        /* \"#utility.yul\":1499:1508   */\n      dup3\n        /* \"#utility.yul\":1495:1513   */\n      add\n        /* \"#utility.yul\":1488:1518   */\n      mstore\n        /* \"#utility.yul\":1419:1423   */\n      0x00\n        /* \"#utility.yul\":1547:1553   */\n      dup3\n        /* \"#utility.yul\":1541:1554   */\n      mload\n        /* \"#utility.yul\":1590:1596   */\n      dup1\n        /* \"#utility.yul\":1585:1587   */\n      0x40\n        /* \"#utility.yul\":1574:1583   */\n      dup5\n        /* \"#utility.yul\":1570:1588   */\n      add\n        /* \"#utility.yul\":1563:1597   */\n      mstore\n        /* \"#utility.yul\":1606:1685   */\n      tag_40\n        /* \"#utility.yul\":1678:1684   */\n      dup2\n        /* \"#utility.yul\":1673:1675   */\n      0x60\n        /* \"#utility.yul\":1662:1671   */\n      dup6\n        /* \"#utility.yul\":1658:1676   */\n      add\n        /* \"#utility.yul\":1653:1655   */\n      0x20\n        /* \"#utility.yul\":1645:1651   */\n      dup8\n        /* \"#utility.yul\":1641:1656   */\n      add\n        /* \"#utility.yul\":1606:1685   */\n      tag_27\n      jump\t// in\n    tag_40:\n        /* \"#utility.yul\":1746:1748   */\n      0x1f\n        /* \"#utility.yul\":1725:1740   */\n      add\n      not(0x1f)\n        /* \"#utility.yul\":1721:1750   */\n      and\n        /* \"#utility.yul\":1706:1751   */\n      swap2\n      swap1\n      swap2\n      add\n        /* \"#utility.yul\":1753:1755   */\n      0x60\n        /* \"#utility.yul\":1702:1756   */\n      add\n      swap4\n        /* \"#utility.yul\":1287:1762   */\n      swap3\n      pop\n      pop\n      pop\n      jump\t// out\n\n    auxdata: 0xa264697066735822122091a51576ce9f9b17f88952a36ed3c239b7b4bbb531c68f3930752caa4692314a64736f6c63430008150033\n}\n",
				"bytecode": {
					"linkReferences": {},
					"object": "608060405234801561000f575f80fd5b506102a98061001d5f395ff3fe608060405260043610610028575f3560e01c806387ba61791461002c578063ff00726c14610041575b5f80fd5b61003f61003a3660046101ce565b610054565b005b61003f61004f3660046101ce565b61014f565b604080516024810191909152600860648201526763616c6c20666f6f60c01b6084820152600160448201525f9081906001600160a01b0384169061138890349060a40160408051601f198184030181529181526020820180516001600160e01b03166324ccab8f60e01b179052516100cc919061021d565b5f60405180830381858888f193505050503d805f8114610107576040519150601f19603f3d011682016040523d82523d5f602084013e61010c565b606091505b50915091507f13848c3e38f8886f3f5d2ad9dff80d8092c2bbb8efd5b887a99c2c6cfc09ac2a8282604051610142929190610238565b60405180910390a1505050565b60408051600481526024810182526020810180516001600160e01b0316630ee642d760e11b17905290515f9182916001600160a01b038516913491610194919061021d565b5f6040518083038185875af1925050503d805f8114610107576040519150601f19603f3d011682016040523d82523d5f602084013e61010c565b5f602082840312156101de575f80fd5b81356001600160a01b03811681146101f4575f80fd5b9392505050565b5f5b838110156102155781810151838201526020016101fd565b50505f910152565b5f825161022e8184602087016101fb565b9190910192915050565b8215158152604060208201525f825180604084015261025e8160608501602087016101fb565b601f01601f191691909101606001939250505056fea264697066735822122091a51576ce9f9b17f88952a36ed3c239b7b4bbb531c68f3930752caa4692314a64736f6c63430008150033",
					"opcodes": "PUSH1 0x80 PUSH1 0x40 MSTORE CALLVALUE DUP1 ISZERO PUSH2 0xF JUMPI PUSH0 DUP1 REVERT JUMPDEST POP PUSH2 0x2A9 DUP1 PUSH2 0x1D PUSH0 CODECOPY PUSH0 RETURN INVALID PUSH1 0x80 PUSH1 0x40 MSTORE PUSH1 0x4 CALLDATASIZE LT PUSH2 0x28 JUMPI PUSH0 CALLDATALOAD PUSH1 0xE0 SHR DUP1 PUSH4 0x87BA6179 EQ PUSH2 0x2C JUMPI DUP1 PUSH4 0xFF00726C EQ PUSH2 0x41 JUMPI JUMPDEST PUSH0 DUP1 REVERT JUMPDEST PUSH2 0x3F PUSH2 0x3A CALLDATASIZE PUSH1 0x4 PUSH2 0x1CE JUMP JUMPDEST PUSH2 0x54 JUMP JUMPDEST STOP JUMPDEST PUSH2 0x3F PUSH2 0x4F CALLDATASIZE PUSH1 0x4 PUSH2 0x1CE JUMP JUMPDEST PUSH2 0x14F JUMP JUMPDEST PUSH1 0x40 DUP1 MLOAD PUSH1 0x24 DUP2 ADD SWAP2 SWAP1 SWAP2 MSTORE PUSH1 0x8 PUSH1 0x64 DUP3 ADD MSTORE PUSH8 0x63616C6C20666F6F PUSH1 0xC0 SHL PUSH1 0x84 DUP3 ADD MSTORE PUSH1 0x1 PUSH1 0x44 DUP3 ADD MSTORE PUSH0 SWAP1 DUP2 SWAP1 PUSH1 0x1 PUSH1 0x1 PUSH1 0xA0 SHL SUB DUP5 AND SWAP1 PUSH2 0x1388 SWAP1 CALLVALUE SWAP1 PUSH1 0xA4 ADD PUSH1 0x40 DUP1 MLOAD PUSH1 0x1F NOT DUP2 DUP5 SUB ADD DUP2 MSTORE SWAP2 DUP2 MSTORE PUSH1 0x20 DUP3 ADD DUP1 MLOAD PUSH1 0x1 PUSH1 0x1 PUSH1 0xE0 SHL SUB AND PUSH4 0x24CCAB8F PUSH1 0xE0 SHL OR SWAP1 MSTORE MLOAD PUSH2 0xCC SWAP2 SWAP1 PUSH2 0x21D JUMP JUMPDEST PUSH0 PUSH1 0x40 MLOAD DUP1 DUP4 SUB DUP2 DUP6 DUP9 DUP9 CALL SWAP4 POP POP POP POP RETURNDATASIZE DUP1 PUSH0 DUP2 EQ PUSH2 0x107 JUMPI PUSH1 0x40 MLOAD SWAP2 POP PUSH1 0x1F NOT PUSH1 0x3F RETURNDATASIZE ADD AND DUP3 ADD PUSH1 0x40 MSTORE RETURNDATASIZE DUP3 MSTORE RETURNDATASIZE PUSH0 PUSH1 0x20 DUP5 ADD RETURNDATACOPY PUSH2 0x10C JUMP JUMPDEST PUSH1 0x60 SWAP2 POP JUMPDEST POP SWAP2 POP SWAP2 POP PUSH32 0x13848C3E38F8886F3F5D2AD9DFF80D8092C2BBB8EFD5B887A99C2C6CFC09AC2A DUP3 DUP3 PUSH1 0x40 MLOAD PUSH2 0x142 SWAP3 SWAP2 SWAP1 PUSH2 0x238 JUMP JUMPDEST PUSH1 0x40 MLOAD DUP1 SWAP2 SUB SWAP1 LOG1 POP POP POP JUMP JUMPDEST PUSH1 0x40 DUP1 MLOAD PUSH1 0x4 DUP2 MSTORE PUSH1 0x24 DUP2 ADD DUP3 MSTORE PUSH1 0x20 DUP2 ADD DUP1 MLOAD PUSH1 0x1 PUSH1 0x1 PUSH1 0xE0 SHL SUB AND PUSH4 0xEE642D7 PUSH1 0xE1 SHL OR SWAP1 MSTORE SWAP1 MLOAD PUSH0 SWAP2 DUP3 SWAP2 PUSH1 0x1 PUSH1 0x1 PUSH1 0xA0 SHL SUB DUP6 AND SWAP2 CALLVALUE SWAP2 PUSH2 0x194 SWAP2 SWAP1 PUSH2 0x21D JUMP JUMPDEST PUSH0 PUSH1 0x40 MLOAD DUP1 DUP4 SUB DUP2 DUP6 DUP8 GAS CALL SWAP3 POP POP POP RETURNDATASIZE DUP1 PUSH0 DUP2 EQ PUSH2 0x107 JUMPI PUSH1 0x40 MLOAD SWAP2 POP PUSH1 0x1F NOT PUSH1 0x3F RETURNDATASIZE ADD AND DUP3 ADD PUSH1 0x40 MSTORE RETURNDATASIZE DUP3 MSTORE RETURNDATASIZE PUSH0 PUSH1 0x20 DUP5 ADD RETURNDATACOPY PUSH2 0x10C JUMP JUMPDEST PUSH0 PUSH1 0x20 DUP3 DUP5 SUB SLT ISZERO PUSH2 0x1DE JUMPI PUSH0 DUP1 REVERT JUMPDEST DUP2 CALLDATALOAD PUSH1 0x1 PUSH1 0x1 PUSH1 0xA0 SHL SUB DUP2 AND DUP2 EQ PUSH2 0x1F4 JUMPI PUSH0 DUP1 REVERT JUMPDEST SWAP4 SWAP3 POP POP POP JUMP JUMPDEST PUSH0 JUMPDEST DUP4 DUP2 LT ISZERO PUSH2 0x215 JUMPI DUP2 DUP2 ADD MLOAD DUP4 DUP3 ADD MSTORE PUSH1 0x20 ADD PUSH2 0x1FD JUMP JUMPDEST POP POP PUSH0 SWAP2 ADD MSTORE JUMP JUMPDEST PUSH0 DUP3 MLOAD PUSH2 0x22E DUP2 DUP5 PUSH1 0x20 DUP8 ADD PUSH2 0x1FB JUMP JUMPDEST SWAP2 SWAP1 SWAP2 ADD SWAP3 SWAP2 POP POP JUMP JUMPDEST DUP3 ISZERO ISZERO DUP2 MSTORE PUSH1 0x40 PUSH1 0x20 DUP3 ADD MSTORE PUSH0 DUP3 MLOAD DUP1 PUSH1 0x40 DUP5 ADD MSTORE PUSH2 0x25E DUP2 PUSH1 0x60 DUP6 ADD PUSH1 0x20 DUP8 ADD PUSH2 0x1FB JUMP JUMPDEST PUSH1 0x1F ADD PUSH1 0x1F NOT AND SWAP2 SWAP1 SWAP2 ADD PUSH1 0x60 ADD SWAP4 SWAP3 POP POP POP JUMP INVALID LOG2 PUSH5 0x6970667358 0x22 SLT KECCAK256 SWAP2 0xA5 ISZERO PUSH23 0xCE9F9B17F88952A36ED3C239B7B4BBB531C68F3930752C 0xAA CHAINID SWAP3 BALANCE 0x4A PUSH5 0x736F6C6343 STOP ADDMOD ISZERO STOP CALLER "
				},
				"gasEstimates": {
					"creation": {
						"codeDepositCost": "136200",
						"executionCost": "181",
						"totalCost": "136381"
					},
					"external": {
						"testCallDoesNotExist(address)": "infinite",
						"testCallFoo(address)": "infinite"
					}
				},
				"methodIdentifiers": {
					"testCallDoesNotExist(address)": "ff00726c",
					"testCallFoo(address)": "87ba6179"
				}
			},
			"storageLayout": {
				"storage": [],
				"types": null
			},
			"userdoc": {
				"kind": "user",
				"methods": {},
				"version": 1
			}
		}
	}
}