{
	"src/pages/call/Call.sol": {
		"Receiver": {
			"abi": [
				{
					"anonymous": false,
					"inputs": [
						{
							"indexed": false,
							"internalType": "address",
							"name": "caller",
							"type": "address"
						},
						{
							"indexed": false,
							"internalType": "uint256",
							"name": "amount",
							"type": "uint256"
						},
						{
							"indexed": false,
							"internalType": "string",
							"name": "message",
							"type": "string"
						}
					],
					"name": "Received",
					"type": "event"
				},
				{
					"inputs": [
						{
							"internalType": "string",
							"name": "_message",
							"type": "string"
						},
						{
							"internalType": "uint256",
							"name": "_x",
							"type": "uint256"
						}
					],
					"name": "foo",
					"outputs": [
						{
							"internalType": "uint256",
							"name": "",
							"type": "uint256"
						}
					],
					"stateMutability": "payable",
					"type": "function"
				}
			],
			"devdoc": {
				"kind": "dev",
				"methods": {},
				"version": 1
			},
			"evm": {
				"assembly": "    /* \"src/pages/call/Call.sol\":61:447  contract Receiver {... */\n  mstore(0x40, 0x80)\n  callvalue\n  dup1\n  iszero\n  tag_1\n  jumpi\n  0x00\n  dup1\n  revert\ntag_1:\n  pop\n  dataSize(sub_0)\n  dup1\n  dataOffset(sub_0)\n  0x00\n  codecopy\n  0x00\n  return\nstop\n\nsub_0: assembly {\n        /* \"src/pages/call/Call.sol\":61:447  contract Receiver {... */\n      mstore(0x40, 0x80)\n      jumpi(tag_1, lt(calldatasize, 0x04))\n      shr(0xe0, calldataload(0x00))\n      dup1\n      0x24ccab8f\n      eq\n      tag_2\n      jumpi\n    tag_1:\n      0x00\n      dup1\n      revert\n        /* \"src/pages/call/Call.sol\":277:444  function foo(string memory _message, uint _x) public payable returns (uint) {... */\n    tag_2:\n      tag_3\n      tag_4\n      calldatasize\n      0x04\n      tag_5\n      jump\t// in\n    tag_4:\n      tag_6\n      jump\t// in\n    tag_3:\n      mload(0x40)\n        /* \"#utility.yul\":1297:1322   */\n      swap1\n      dup2\n      mstore\n        /* \"#utility.yul\":1285:1287   */\n      0x20\n        /* \"#utility.yul\":1270:1288   */\n      add\n        /* \"src/pages/call/Call.sol\":277:444  function foo(string memory _message, uint _x) public payable returns (uint) {... */\n      mload(0x40)\n      dup1\n      swap2\n      sub\n      swap1\n      return\n    tag_6:\n        /* \"src/pages/call/Call.sol\":347:351  uint */\n      0x00\n        /* \"src/pages/call/Call.sol\":369:410  Received(msg.sender, msg.value, _message) */\n      0x59e04c3f0d44b7caf6e8ef854b61d9a51cf1960d7a88ff6356cc5e946b4b5832\n        /* \"src/pages/call/Call.sol\":378:388  msg.sender */\n      caller\n        /* \"src/pages/call/Call.sol\":390:399  msg.value */\n      callvalue\n        /* \"src/pages/call/Call.sol\":401:409  _message */\n      dup6\n        /* \"src/pages/call/Call.sol\":369:410  Received(msg.sender, msg.value, _message) */\n      mload(0x40)\n      tag_10\n      swap4\n      swap3\n      swap2\n      swap1\n      tag_11\n      jump\t// in\n    tag_10:\n      mload(0x40)\n      dup1\n      swap2\n      sub\n      swap1\n      log1\n        /* \"src/pages/call/Call.sol\":430:436  _x + 1 */\n      tag_12\n        /* \"src/pages/call/Call.sol\":430:432  _x */\n      dup3\n        /* \"src/pages/call/Call.sol\":435:436  1 */\n      0x01\n        /* \"src/pages/call/Call.sol\":430:436  _x + 1 */\n      tag_13\n      jump\t// in\n    tag_12:\n        /* \"src/pages/call/Call.sol\":423:436  return _x + 1 */\n      swap1\n      pop\n        /* \"src/pages/call/Call.sol\":277:444  function foo(string memory _message, uint _x) public payable returns (uint) {... */\n    tag_9:\n      swap3\n      swap2\n      pop\n      pop\n      jump\t// out\n        /* \"#utility.yul\":14:141   */\n    tag_14:\n        /* \"#utility.yul\":75:85   */\n      0x4e487b71\n        /* \"#utility.yul\":70:73   */\n      0xe0\n        /* \"#utility.yul\":66:86   */\n      shl\n        /* \"#utility.yul\":63:64   */\n      0x00\n        /* \"#utility.yul\":56:87   */\n      mstore\n        /* \"#utility.yul\":106:110   */\n      0x41\n        /* \"#utility.yul\":103:104   */\n      0x04\n        /* \"#utility.yul\":96:111   */\n      mstore\n        /* \"#utility.yul\":130:134   */\n      0x24\n        /* \"#utility.yul\":127:128   */\n      0x00\n        /* \"#utility.yul\":120:135   */\n      revert\n        /* \"#utility.yul\":146:1146   */\n    tag_5:\n        /* \"#utility.yul\":224:230   */\n      0x00\n        /* \"#utility.yul\":232:238   */\n      dup1\n        /* \"#utility.yul\":285:287   */\n      0x40\n        /* \"#utility.yul\":273:282   */\n      dup4\n        /* \"#utility.yul\":264:271   */\n      dup6\n        /* \"#utility.yul\":260:283   */\n      sub\n        /* \"#utility.yul\":256:288   */\n      slt\n        /* \"#utility.yul\":253:305   */\n      iszero\n      tag_18\n      jumpi\n        /* \"#utility.yul\":301:302   */\n      0x00\n        /* \"#utility.yul\":298:299   */\n      dup1\n        /* \"#utility.yul\":291:303   */\n      revert\n        /* \"#utility.yul\":253:305   */\n    tag_18:\n        /* \"#utility.yul\":341:350   */\n      dup3\n        /* \"#utility.yul\":328:351   */\n      calldataload\n        /* \"#utility.yul\":370:388   */\n      0xffffffffffffffff\n        /* \"#utility.yul\":411:413   */\n      dup1\n        /* \"#utility.yul\":403:409   */\n      dup3\n        /* \"#utility.yul\":400:414   */\n      gt\n        /* \"#utility.yul\":397:431   */\n      iszero\n      tag_19\n      jumpi\n        /* \"#utility.yul\":427:428   */\n      0x00\n        /* \"#utility.yul\":424:425   */\n      dup1\n        /* \"#utility.yul\":417:429   */\n      revert\n        /* \"#utility.yul\":397:431   */\n    tag_19:\n        /* \"#utility.yul\":465:471   */\n      dup2\n        /* \"#utility.yul\":454:463   */\n      dup6\n        /* \"#utility.yul\":450:472   */\n      add\n        /* \"#utility.yul\":440:472   */\n      swap2\n      pop\n        /* \"#utility.yul\":510:517   */\n      dup6\n        /* \"#utility.yul\":503:507   */\n      0x1f\n        /* \"#utility.yul\":499:501   */\n      dup4\n        /* \"#utility.yul\":495:508   */\n      add\n        /* \"#utility.yul\":491:518   */\n      slt\n        /* \"#utility.yul\":481:536   */\n      tag_20\n      jumpi\n        /* \"#utility.yul\":532:533   */\n      0x00\n        /* \"#utility.yul\":529:530   */\n      dup1\n        /* \"#utility.yul\":522:534   */\n      revert\n        /* \"#utility.yul\":481:536   */\n    tag_20:\n        /* \"#utility.yul\":568:570   */\n      dup2\n        /* \"#utility.yul\":555:571   */\n      calldataload\n        /* \"#utility.yul\":590:592   */\n      dup2\n        /* \"#utility.yul\":586:588   */\n      dup2\n        /* \"#utility.yul\":583:593   */\n      gt\n        /* \"#utility.yul\":580:616   */\n      iszero\n      tag_22\n      jumpi\n        /* \"#utility.yul\":596:614   */\n      tag_22\n      tag_14\n      jump\t// in\n    tag_22:\n        /* \"#utility.yul\":671:673   */\n      0x40\n        /* \"#utility.yul\":665:674   */\n      mload\n        /* \"#utility.yul\":639:641   */\n      0x1f\n        /* \"#utility.yul\":725:738   */\n      dup3\n      add\n      not(0x1f)\n        /* \"#utility.yul\":721:743   */\n      swap1\n      dup2\n      and\n        /* \"#utility.yul\":745:747   */\n      0x3f\n        /* \"#utility.yul\":717:748   */\n      add\n        /* \"#utility.yul\":713:753   */\n      and\n        /* \"#utility.yul\":701:754   */\n      dup2\n      add\n      swap1\n        /* \"#utility.yul\":769:787   */\n      dup4\n      dup3\n      gt\n        /* \"#utility.yul\":789:811   */\n      dup2\n      dup4\n      lt\n        /* \"#utility.yul\":766:812   */\n      or\n        /* \"#utility.yul\":763:835   */\n      iszero\n      tag_24\n      jumpi\n        /* \"#utility.yul\":815:833   */\n      tag_24\n      tag_14\n      jump\t// in\n    tag_24:\n        /* \"#utility.yul\":855:865   */\n      dup2\n        /* \"#utility.yul\":851:853   */\n      0x40\n        /* \"#utility.yul\":844:866   */\n      mstore\n        /* \"#utility.yul\":890:892   */\n      dup3\n        /* \"#utility.yul\":882:888   */\n      dup2\n        /* \"#utility.yul\":875:893   */\n      mstore\n        /* \"#utility.yul\":932:939   */\n      dup9\n        /* \"#utility.yul\":925:929   */\n      0x20\n        /* \"#utility.yul\":920:922   */\n      dup5\n        /* \"#utility.yul\":916:918   */\n      dup8\n        /* \"#utility.yul\":912:923   */\n      add\n        /* \"#utility.yul\":908:930   */\n      add\n        /* \"#utility.yul\":905:940   */\n      gt\n        /* \"#utility.yul\":902:957   */\n      iszero\n      tag_25\n      jumpi\n        /* \"#utility.yul\":953:954   */\n      0x00\n        /* \"#utility.yul\":950:951   */\n      dup1\n        /* \"#utility.yul\":943:955   */\n      revert\n        /* \"#utility.yul\":902:957   */\n    tag_25:\n        /* \"#utility.yul\":1013:1015   */\n      dup3\n        /* \"#utility.yul\":1006:1010   */\n      0x20\n        /* \"#utility.yul\":1002:1004   */\n      dup7\n        /* \"#utility.yul\":998:1011   */\n      add\n        /* \"#utility.yul\":991:995   */\n      0x20\n        /* \"#utility.yul\":983:989   */\n      dup4\n        /* \"#utility.yul\":979:996   */\n      add\n        /* \"#utility.yul\":966:1016   */\n      calldatacopy\n        /* \"#utility.yul\":1060:1061   */\n      0x00\n        /* \"#utility.yul\":1053:1057   */\n      0x20\n        /* \"#utility.yul\":1036:1051   */\n      swap4\n      dup3\n      add\n        /* \"#utility.yul\":1032:1058   */\n      dup5\n      add\n        /* \"#utility.yul\":1025:1062   */\n      mstore\n        /* \"#utility.yul\":1036:1051   */\n      swap9\n        /* \"#utility.yul\":1119:1139   */\n      swap7\n      swap1\n      swap2\n      add\n        /* \"#utility.yul\":1106:1140   */\n      calldataload\n      swap7\n      pop\n      pop\n      pop\n      pop\n      pop\n      pop\n        /* \"#utility.yul\":146:1146   */\n      jump\t// out\n        /* \"#utility.yul\":1333:2052   */\n    tag_11:\n        /* \"#utility.yul\":1567:1568   */\n      0x01\n        /* \"#utility.yul\":1563:1564   */\n      dup1\n        /* \"#utility.yul\":1558:1561   */\n      0xa0\n        /* \"#utility.yul\":1554:1565   */\n      shl\n        /* \"#utility.yul\":1550:1569   */\n      sub\n        /* \"#utility.yul\":1542:1548   */\n      dup5\n        /* \"#utility.yul\":1538:1570   */\n      and\n        /* \"#utility.yul\":1527:1536   */\n      dup2\n        /* \"#utility.yul\":1520:1571   */\n      mstore\n        /* \"#utility.yul\":1501:1505   */\n      0x00\n        /* \"#utility.yul\":1590:1592   */\n      0x20\n        /* \"#utility.yul\":1628:1634   */\n      dup5\n        /* \"#utility.yul\":1623:1625   */\n      dup2\n        /* \"#utility.yul\":1612:1621   */\n      dup5\n        /* \"#utility.yul\":1608:1626   */\n      add\n        /* \"#utility.yul\":1601:1635   */\n      mstore\n        /* \"#utility.yul\":1671:1673   */\n      0x60\n        /* \"#utility.yul\":1666:1668   */\n      0x40\n        /* \"#utility.yul\":1655:1664   */\n      dup5\n        /* \"#utility.yul\":1651:1669   */\n      add\n        /* \"#utility.yul\":1644:1674   */\n      mstore\n        /* \"#utility.yul\":1703:1709   */\n      dup4\n        /* \"#utility.yul\":1697:1710   */\n      mload\n        /* \"#utility.yul\":1746:1752   */\n      dup1\n        /* \"#utility.yul\":1741:1743   */\n      0x60\n        /* \"#utility.yul\":1730:1739   */\n      dup6\n        /* \"#utility.yul\":1726:1744   */\n      add\n        /* \"#utility.yul\":1719:1753   */\n      mstore\n        /* \"#utility.yul\":1771:1772   */\n      0x00\n        /* \"#utility.yul\":1781:1922   */\n    tag_28:\n        /* \"#utility.yul\":1795:1801   */\n      dup2\n        /* \"#utility.yul\":1792:1793   */\n      dup2\n        /* \"#utility.yul\":1789:1802   */\n      lt\n        /* \"#utility.yul\":1781:1922   */\n      iszero\n      tag_30\n      jumpi\n        /* \"#utility.yul\":1891:1905   */\n      dup6\n      dup2\n      add\n        /* \"#utility.yul\":1887:1910   */\n      dup4\n      add\n        /* \"#utility.yul\":1881:1911   */\n      mload\n        /* \"#utility.yul\":1856:1873   */\n      dup6\n      dup3\n      add\n        /* \"#utility.yul\":1875:1878   */\n      0x80\n        /* \"#utility.yul\":1852:1879   */\n      add\n        /* \"#utility.yul\":1845:1912   */\n      mstore\n        /* \"#utility.yul\":1810:1820   */\n      dup3\n      add\n        /* \"#utility.yul\":1781:1922   */\n      jump(tag_28)\n    tag_30:\n        /* \"#utility.yul\":1785:1788   */\n      pop\n        /* \"#utility.yul\":1972:1973   */\n      0x00\n        /* \"#utility.yul\":1966:1969   */\n      0x80\n        /* \"#utility.yul\":1957:1963   */\n      dup3\n        /* \"#utility.yul\":1946:1955   */\n      dup7\n        /* \"#utility.yul\":1942:1964   */\n      add\n        /* \"#utility.yul\":1938:1970   */\n      add\n        /* \"#utility.yul\":1931:1974   */\n      mstore\n        /* \"#utility.yul\":2042:2045   */\n      0x80\n        /* \"#utility.yul\":2035:2037   */\n      0x1f\n        /* \"#utility.yul\":2031:2038   */\n      not\n        /* \"#utility.yul\":2026:2028   */\n      0x1f\n        /* \"#utility.yul\":2018:2024   */\n      dup4\n        /* \"#utility.yul\":2014:2029   */\n      add\n        /* \"#utility.yul\":2010:2039   */\n      and\n        /* \"#utility.yul\":1999:2008   */\n      dup6\n        /* \"#utility.yul\":1995:2040   */\n      add\n        /* \"#utility.yul\":1991:2046   */\n      add\n        /* \"#utility.yul\":1983:2046   */\n      swap3\n      pop\n      pop\n      pop\n        /* \"#utility.yul\":1333:2052   */\n      swap5\n      swap4\n      pop\n      pop\n      pop\n      pop\n      jump\t// out\n        /* \"#utility.yul\":2057:2279   */\n    tag_13:\n        /* \"#utility.yul\":2122:2131   */\n      dup1\n      dup3\n      add\n        /* \"#utility.yul\":2143:2153   */\n      dup1\n      dup3\n      gt\n        /* \"#utility.yul\":2140:2273   */\n      iszero\n      tag_9\n      jumpi\n        /* \"#utility.yul\":2195:2205   */\n      0x4e487b71\n        /* \"#utility.yul\":2190:2193   */\n      0xe0\n        /* \"#utility.yul\":2186:2206   */\n      shl\n        /* \"#utility.yul\":2183:2184   */\n      0x00\n        /* \"#utility.yul\":2176:2207   */\n      mstore\n        /* \"#utility.yul\":2230:2234   */\n      0x11\n        /* \"#utility.yul\":2227:2228   */\n      0x04\n        /* \"#utility.yul\":2220:2235   */\n      mstore\n        /* \"#utility.yul\":2258:2262   */\n      0x24\n        /* \"#utility.yul\":2255:2256   */\n      0x00\n        /* \"#utility.yul\":2248:2263   */\n      revert\n\n    auxdata: 0xa2646970667358221220b28b460ea4be36f130406e102530d89570310e3b5ae240aef607c9b5035af03f64736f6c63430008150033\n}\n",
				"bytecode": {
					"linkReferences": {},
					"object": "608060405234801561000f575f80fd5b506102108061001d5f395ff3fe60806040526004361061001d575f3560e01c806324ccab8f14610021575b5f80fd5b61003461002f3660046100aa565b610046565b60405190815260200160405180910390f35b5f7f59e04c3f0d44b7caf6e8ef854b61d9a51cf1960d7a88ff6356cc5e946b4b583233348560405161007a93929190610159565b60405180910390a161008d8260016101bb565b90505b92915050565b634e487b7160e01b5f52604160045260245ffd5b5f80604083850312156100bb575f80fd5b823567ffffffffffffffff808211156100d2575f80fd5b818501915085601f8301126100e5575f80fd5b8135818111156100f7576100f7610096565b604051601f8201601f19908116603f0116810190838211818310171561011f5761011f610096565b81604052828152886020848701011115610137575f80fd5b826020860160208301375f602093820184015298969091013596505050505050565b60018060a01b03841681525f602084818401526060604084015283518060608501525f5b818110156101995785810183015185820160800152820161017d565b505f608082860101526080601f19601f83011685010192505050949350505050565b8082018082111561009057634e487b7160e01b5f52601160045260245ffdfea2646970667358221220b28b460ea4be36f130406e102530d89570310e3b5ae240aef607c9b5035af03f64736f6c63430008150033",
					"opcodes": "PUSH1 0x80 PUSH1 0x40 MSTORE CALLVALUE DUP1 ISZERO PUSH2 0xF JUMPI PUSH0 DUP1 REVERT JUMPDEST POP PUSH2 0x210 DUP1 PUSH2 0x1D PUSH0 CODECOPY PUSH0 RETURN INVALID PUSH1 0x80 PUSH1 0x40 MSTORE PUSH1 0x4 CALLDATASIZE LT PUSH2 0x1D JUMPI PUSH0 CALLDATALOAD PUSH1 0xE0 SHR DUP1 PUSH4 0x24CCAB8F EQ PUSH2 0x21 JUMPI JUMPDEST PUSH0 DUP1 REVERT JUMPDEST PUSH2 0x34 PUSH2 0x2F CALLDATASIZE PUSH1 0x4 PUSH2 0xAA JUMP JUMPDEST PUSH2 0x46 JUMP JUMPDEST PUSH1 0x40 MLOAD SWAP1 DUP2 MSTORE PUSH1 0x20 ADD PUSH1 0x40 MLOAD DUP1 SWAP2 SUB SWAP1 RETURN JUMPDEST PUSH0 PUSH32 0x59E04C3F0D44B7CAF6E8EF854B61D9A51CF1960D7A88FF6356CC5E946B4B5832 CALLER CALLVALUE DUP6 PUSH1 0x40 MLOAD PUSH2 0x7A SWAP4 SWAP3 SWAP2 SWAP1 PUSH2 0x159 JUMP JUMPDEST PUSH1 0x40 MLOAD DUP1 SWAP2 SUB SWAP1 LOG1 PUSH2 0x8D DUP3 PUSH1 0x1 PUSH2 0x1BB JUMP JUMPDEST SWAP1 POP JUMPDEST SWAP3 SWAP2 POP POP JUMP JUMPDEST PUSH4 0x4E487B71 PUSH1 0xE0 SHL PUSH0 MSTORE PUSH1 0x41 PUSH1 0x4 MSTORE PUSH1 0x24 PUSH0 REVERT JUMPDEST PUSH0 DUP1 PUSH1 0x40 DUP4 DUP6 SUB SLT ISZERO PUSH2 0xBB JUMPI PUSH0 DUP1 REVERT JUMPDEST DUP3 CALLDATALOAD PUSH8 0xFFFFFFFFFFFFFFFF DUP1 DUP3 GT ISZERO PUSH2 0xD2 JUMPI PUSH0 DUP1 REVERT JUMPDEST DUP2 DUP6 ADD SWAP2 POP DUP6 PUSH1 0x1F DUP4 ADD SLT PUSH2 0xE5 JUMPI PUSH0 DUP1 REVERT JUMPDEST DUP2 CALLDATALOAD DUP2 DUP2 GT ISZERO PUSH2 0xF7 JUMPI PUSH2 0xF7 PUSH2 0x96 JUMP JUMPDEST PUSH1 0x40 MLOAD PUSH1 0x1F DUP3 ADD PUSH1 0x1F NOT SWAP1 DUP2 AND PUSH1 0x3F ADD AND DUP2 ADD SWAP1 DUP4 DUP3 GT DUP2 DUP4 LT OR ISZERO PUSH2 0x11F JUMPI PUSH2 0x11F PUSH2 0x96 JUMP JUMPDEST DUP2 PUSH1 0x40 MSTORE DUP3 DUP2 MSTORE DUP9 PUSH1 0x20 DUP5 DUP8 ADD ADD GT ISZERO PUSH2 0x137 JUMPI PUSH0 DUP1 REVERT JUMPDEST DUP3 PUSH1 0x20 DUP7 ADD PUSH1 0x20 DUP4 ADD CALLDATACOPY PUSH0 PUSH1 0x20 SWAP4 DUP3 ADD DUP5 ADD MSTORE SWAP9 SWAP7 SWAP1 SWAP2 ADD CALLDATALOAD SWAP7 POP POP POP POP POP POP JUMP JUMPDEST PUSH1 0x1 DUP1 PUSH1 0xA0 SHL SUB DUP5 AND DUP2 MSTORE PUSH0 PUSH1 0x20 DUP5 DUP2 DUP5 ADD MSTORE PUSH1 0x60 PUSH1 0x40 DUP5 ADD MSTORE DUP4 MLOAD DUP1 PUSH1 0x60 DUP6 ADD MSTORE PUSH0 JUMPDEST DUP2 DUP2 LT ISZERO PUSH2 0x199 JUMPI DUP6 DUP2 ADD DUP4 ADD MLOAD DUP6 DUP3 ADD PUSH1 0x80 ADD MSTORE DUP3 ADD PUSH2 0x17D JUMP JUMPDEST POP PUSH0 PUSH1 0x80 DUP3 DUP7 ADD ADD MSTORE PUSH1 0x80 PUSH1 0x1F NOT PUSH1 0x1F DUP4 ADD AND DUP6 ADD ADD SWAP3 POP POP POP SWAP5 SWAP4 POP POP POP POP JUMP JUMPDEST DUP1 DUP3 ADD DUP1 DUP3 GT ISZERO PUSH2 0x90 JUMPI PUSH4 0x4E487B71 PUSH1 0xE0 SHL PUSH0 MSTORE PUSH1 0x11 PUSH1 0x4 MSTORE PUSH1 0x24 PUSH0 REVERT INVALID LOG2 PUSH5 0x6970667358 0x22 SLT KECCAK256 0xB2 DUP12 CHAINID 0xE LOG4 0xBE CALLDATASIZE CALL ADDRESS BLOCKHASH PUSH15 0x102530D89570310E3B5AE240AEF607 0xC9 0xB5 SUB GAS CREATE EXTCODEHASH PUSH5 0x736F6C6343 STOP ADDMOD ISZERO STOP CALLER "
				},
				"gasEstimates": {
					"creation": {
						"codeDepositCost": "105600",
						"executionCost": "151",
						"totalCost": "105751"
					},
					"external": {
						"foo(string,uint256)": "infinite"
					}
				},
				"methodIdentifiers": {
					"foo(string,uint256)": "24ccab8f"
				}
			},
			"storageLayout": {
				"storage": [],
				"types": null
			},
			"userdoc": {
				"kind": "user",
				"methods": {},
				"version": 1
			}
		}
	}
}