{
	"src/pages/fallback/FallbackInputOutput.sol": {
		"TestFallbackInputOutput": {
			"abi": [
				{
					"anonymous": false,
					"inputs": [
						{
							"indexed": false,
							"internalType": "bytes",
							"name": "res",
							"type": "bytes"
						}
					],
					"name": "Log",
					"type": "event"
				},
				{
					"inputs": [],
					"name": "getTestData",
					"outputs": [
						{
							"internalType": "bytes",
							"name": "",
							"type": "bytes"
						},
						{
							"internalType": "bytes",
							"name": "",
							"type": "bytes"
						}
					],
					"stateMutability": "pure",
					"type": "function"
				},
				{
					"inputs": [
						{
							"internalType": "address",
							"name": "_fallback",
							"type": "address"
						},
						{
							"internalType": "bytes",
							"name": "data",
							"type": "bytes"
						}
					],
					"name": "test",
					"outputs": [],
					"stateMutability": "nonpayable",
					"type": "function"
				}
			],
			"devdoc": {
				"kind": "dev",
				"methods": {},
				"version": 1
			},
			"evm": {
				"assembly": "    /* \"src/pages/fallback/FallbackInputOutput.sol\":681:1120  contract TestFallbackInputOutput {... */\n  mstore(0x40, 0x80)\n  callvalue\n  dup1\n  iszero\n  tag_1\n  jumpi\n  0x00\n  dup1\n  revert\ntag_1:\n  pop\n  dataSize(sub_0)\n  dup1\n  dataOffset(sub_0)\n  0x00\n  codecopy\n  0x00\n  return\nstop\n\nsub_0: assembly {\n        /* \"src/pages/fallback/FallbackInputOutput.sol\":681:1120  contract TestFallbackInputOutput {... */\n      mstore(0x40, 0x80)\n      callvalue\n      dup1\n      iszero\n      tag_1\n      jumpi\n      0x00\n      dup1\n      revert\n    tag_1:\n      pop\n      jumpi(tag_2, lt(calldatasize, 0x04))\n      shr(0xe0, calldataload(0x00))\n      dup1\n      0x6610f5ca\n      eq\n      tag_3\n      jumpi\n      dup1\n      0x93e01418\n      eq\n      tag_4\n      jumpi\n    tag_2:\n      0x00\n      dup1\n      revert\n        /* \"src/pages/fallback/FallbackInputOutput.sol\":951:1117  function getTestData() external pure returns (bytes memory, bytes memory) {... */\n    tag_3:\n      tag_5\n        /* \"src/pages/fallback/FallbackInputOutput.sol\":1044:1075  abi.encodeCall(Counter.get, ()) */\n      0x40\n      dup1\n      mload\n      0x04\n      dup1\n      dup3\n      mstore\n      0x24\n      dup1\n      dup4\n      add\n      dup5\n      mstore\n      0x20\n      dup1\n      dup5\n      add\n      dup1\n      mload\n      sub(shl(0xe0, 0x01), 0x01)\n      swap1\n      dup2\n      and\n      shl(0xe2, 0x1b53398f)\n      or\n      swap1\n      swap2\n      mstore\n        /* \"src/pages/fallback/FallbackInputOutput.sol\":1077:1108  abi.encodeCall(Counter.inc, ()) */\n      dup6\n      mload\n      swap4\n      dup5\n      mstore\n      swap2\n      dup4\n      add\n      swap1\n      swap5\n      mstore\n      swap3\n      dup2\n      add\n      dup1\n      mload\n      swap1\n      swap4\n      and\n      shl(0xe6, 0xdc4c0f)\n      or\n      swap1\n      swap3\n      mstore\n        /* \"src/pages/fallback/FallbackInputOutput.sol\":1044:1075  abi.encodeCall(Counter.get, ()) */\n      swap2\n        /* \"src/pages/fallback/FallbackInputOutput.sol\":951:1117  function getTestData() external pure returns (bytes memory, bytes memory) {... */\n      jump\n    tag_5:\n      mload(0x40)\n      tag_7\n      swap3\n      swap2\n      swap1\n      tag_8\n      jump\t// in\n    tag_7:\n      mload(0x40)\n      dup1\n      swap2\n      sub\n      swap1\n      return\n        /* \"src/pages/fallback/FallbackInputOutput.sol\":750:943  function test(address _fallback, bytes calldata data) external {... */\n    tag_4:\n      tag_9\n      tag_10\n      calldatasize\n      0x04\n      tag_11\n      jump\t// in\n    tag_10:\n      tag_12\n      jump\t// in\n    tag_9:\n      stop\n    tag_12:\n        /* \"src/pages/fallback/FallbackInputOutput.sol\":825:832  bool ok */\n      0x00\n        /* \"src/pages/fallback/FallbackInputOutput.sol\":834:850  bytes memory res */\n      dup1\n        /* \"src/pages/fallback/FallbackInputOutput.sol\":854:863  _fallback */\n      dup5\n      sub(shl(0xa0, 0x01), 0x01)\n        /* \"src/pages/fallback/FallbackInputOutput.sol\":854:868  _fallback.call */\n      and\n        /* \"src/pages/fallback/FallbackInputOutput.sol\":869:873  data */\n      dup5\n      dup5\n        /* \"src/pages/fallback/FallbackInputOutput.sol\":854:874  _fallback.call(data) */\n      mload(0x40)\n      tag_15\n      swap3\n      swap2\n      swap1\n      tag_16\n      jump\t// in\n    tag_15:\n      0x00\n      mload(0x40)\n      dup1\n      dup4\n      sub\n      dup2\n      0x00\n      dup7\n      gas\n      call\n      swap2\n      pop\n      pop\n      returndatasize\n      dup1\n      0x00\n      dup2\n      eq\n      tag_19\n      jumpi\n      mload(0x40)\n      swap2\n      pop\n      and(add(returndatasize, 0x3f), not(0x1f))\n      dup3\n      add\n      0x40\n      mstore\n      returndatasize\n      dup3\n      mstore\n      returndatasize\n      0x00\n      0x20\n      dup5\n      add\n      returndatacopy\n      jump(tag_18)\n    tag_19:\n      0x60\n      swap2\n      pop\n    tag_18:\n      pop\n        /* \"src/pages/fallback/FallbackInputOutput.sol\":824:874  (bool ok, bytes memory res) = _fallback.call(data) */\n      swap2\n      pop\n      swap2\n      pop\n        /* \"src/pages/fallback/FallbackInputOutput.sol\":893:895  ok */\n      dup2\n        /* \"src/pages/fallback/FallbackInputOutput.sol\":885:911  require(ok, \"call failed\") */\n      tag_20\n      jumpi\n      mload(0x40)\n      shl(0xe5, 0x461bcd)\n      dup2\n      mstore\n        /* \"#utility.yul\":2071:2073   */\n      0x20\n        /* \"src/pages/fallback/FallbackInputOutput.sol\":885:911  require(ok, \"call failed\") */\n      0x04\n      dup3\n      add\n        /* \"#utility.yul\":2053:2074   */\n      mstore\n        /* \"#utility.yul\":2110:2112   */\n      0x0b\n        /* \"#utility.yul\":2090:2108   */\n      0x24\n      dup3\n      add\n        /* \"#utility.yul\":2083:2113   */\n      mstore\n      shl(0xaa, 0x18d85b1b0819985a5b1959)\n        /* \"#utility.yul\":2129:2147   */\n      0x44\n      dup3\n      add\n        /* \"#utility.yul\":2122:2163   */\n      mstore\n        /* \"#utility.yul\":2180:2198   */\n      0x64\n      add\n        /* \"src/pages/fallback/FallbackInputOutput.sol\":885:911  require(ok, \"call failed\") */\n      mload(0x40)\n      dup1\n      swap2\n      sub\n      swap1\n      revert\n    tag_20:\n        /* \"src/pages/fallback/FallbackInputOutput.sol\":927:935  Log(res) */\n      0xafabcf2dd47e06a477a89e49c03f8ebe8e0a7e94f775b25bbb24227c9d0110b2\n        /* \"src/pages/fallback/FallbackInputOutput.sol\":931:934  res */\n      dup2\n        /* \"src/pages/fallback/FallbackInputOutput.sol\":927:935  Log(res) */\n      mload(0x40)\n      tag_23\n      swap2\n      swap1\n      tag_24\n      jump\t// in\n    tag_23:\n      mload(0x40)\n      dup1\n      swap2\n      sub\n      swap1\n      log1\n        /* \"src/pages/fallback/FallbackInputOutput.sol\":813:943  {... */\n      pop\n      pop\n        /* \"src/pages/fallback/FallbackInputOutput.sol\":750:943  function test(address _fallback, bytes calldata data) external {... */\n      pop\n      pop\n      pop\n      jump\t// out\n        /* \"#utility.yul\":14:436   */\n    tag_25:\n        /* \"#utility.yul\":55:58   */\n      0x00\n        /* \"#utility.yul\":93:98   */\n      dup2\n        /* \"#utility.yul\":87:99   */\n      mload\n        /* \"#utility.yul\":120:126   */\n      dup1\n        /* \"#utility.yul\":115:118   */\n      dup5\n        /* \"#utility.yul\":108:127   */\n      mstore\n        /* \"#utility.yul\":145:146   */\n      0x00\n        /* \"#utility.yul\":155:317   */\n    tag_28:\n        /* \"#utility.yul\":169:175   */\n      dup2\n        /* \"#utility.yul\":166:167   */\n      dup2\n        /* \"#utility.yul\":163:176   */\n      lt\n        /* \"#utility.yul\":155:317   */\n      iszero\n      tag_30\n      jumpi\n        /* \"#utility.yul\":231:235   */\n      0x20\n        /* \"#utility.yul\":287:300   */\n      dup2\n      dup6\n      add\n        /* \"#utility.yul\":283:305   */\n      dup2\n      add\n        /* \"#utility.yul\":277:306   */\n      mload\n        /* \"#utility.yul\":259:270   */\n      dup7\n      dup4\n      add\n        /* \"#utility.yul\":255:275   */\n      dup3\n      add\n        /* \"#utility.yul\":248:307   */\n      mstore\n        /* \"#utility.yul\":184:196   */\n      add\n        /* \"#utility.yul\":155:317   */\n      jump(tag_28)\n    tag_30:\n        /* \"#utility.yul\":159:162   */\n      pop\n        /* \"#utility.yul\":362:363   */\n      0x00\n        /* \"#utility.yul\":355:359   */\n      0x20\n        /* \"#utility.yul\":346:352   */\n      dup3\n        /* \"#utility.yul\":341:344   */\n      dup7\n        /* \"#utility.yul\":337:353   */\n      add\n        /* \"#utility.yul\":333:360   */\n      add\n        /* \"#utility.yul\":326:364   */\n      mstore\n        /* \"#utility.yul\":425:429   */\n      0x20\n        /* \"#utility.yul\":418:420   */\n      0x1f\n        /* \"#utility.yul\":414:421   */\n      not\n        /* \"#utility.yul\":409:411   */\n      0x1f\n        /* \"#utility.yul\":401:407   */\n      dup4\n        /* \"#utility.yul\":397:412   */\n      add\n        /* \"#utility.yul\":393:422   */\n      and\n        /* \"#utility.yul\":388:391   */\n      dup6\n        /* \"#utility.yul\":384:423   */\n      add\n        /* \"#utility.yul\":380:430   */\n      add\n        /* \"#utility.yul\":373:430   */\n      swap2\n      pop\n      pop\n        /* \"#utility.yul\":14:436   */\n      swap3\n      swap2\n      pop\n      pop\n      jump\t// out\n        /* \"#utility.yul\":441:818   */\n    tag_8:\n        /* \"#utility.yul\":634:636   */\n      0x40\n        /* \"#utility.yul\":623:632   */\n      dup2\n        /* \"#utility.yul\":616:637   */\n      mstore\n        /* \"#utility.yul\":597:601   */\n      0x00\n        /* \"#utility.yul\":660:704   */\n      tag_32\n        /* \"#utility.yul\":700:702   */\n      0x40\n        /* \"#utility.yul\":689:698   */\n      dup4\n        /* \"#utility.yul\":685:703   */\n      add\n        /* \"#utility.yul\":677:683   */\n      dup6\n        /* \"#utility.yul\":660:704   */\n      tag_25\n      jump\t// in\n    tag_32:\n        /* \"#utility.yul\":752:761   */\n      dup3\n        /* \"#utility.yul\":744:750   */\n      dup2\n        /* \"#utility.yul\":740:762   */\n      sub\n        /* \"#utility.yul\":735:737   */\n      0x20\n        /* \"#utility.yul\":724:733   */\n      dup5\n        /* \"#utility.yul\":720:738   */\n      add\n        /* \"#utility.yul\":713:763   */\n      mstore\n        /* \"#utility.yul\":780:812   */\n      tag_33\n        /* \"#utility.yul\":805:811   */\n      dup2\n        /* \"#utility.yul\":797:803   */\n      dup6\n        /* \"#utility.yul\":780:812   */\n      tag_25\n      jump\t// in\n    tag_33:\n        /* \"#utility.yul\":772:812   */\n      swap6\n        /* \"#utility.yul\":441:818   */\n      swap5\n      pop\n      pop\n      pop\n      pop\n      pop\n      jump\t// out\n        /* \"#utility.yul\":823:1588   */\n    tag_11:\n        /* \"#utility.yul\":902:908   */\n      0x00\n        /* \"#utility.yul\":910:916   */\n      dup1\n        /* \"#utility.yul\":918:924   */\n      0x00\n        /* \"#utility.yul\":971:973   */\n      0x40\n        /* \"#utility.yul\":959:968   */\n      dup5\n        /* \"#utility.yul\":950:957   */\n      dup7\n        /* \"#utility.yul\":946:969   */\n      sub\n        /* \"#utility.yul\":942:974   */\n      slt\n        /* \"#utility.yul\":939:991   */\n      iszero\n      tag_35\n      jumpi\n        /* \"#utility.yul\":987:988   */\n      0x00\n        /* \"#utility.yul\":984:985   */\n      dup1\n        /* \"#utility.yul\":977:989   */\n      revert\n        /* \"#utility.yul\":939:991   */\n    tag_35:\n        /* \"#utility.yul\":1013:1036   */\n      dup4\n      calldataload\n      sub(shl(0xa0, 0x01), 0x01)\n        /* \"#utility.yul\":1065:1096   */\n      dup2\n      and\n        /* \"#utility.yul\":1055:1097   */\n      dup2\n      eq\n        /* \"#utility.yul\":1045:1115   */\n      tag_36\n      jumpi\n        /* \"#utility.yul\":1111:1112   */\n      0x00\n        /* \"#utility.yul\":1108:1109   */\n      dup1\n        /* \"#utility.yul\":1101:1113   */\n      revert\n        /* \"#utility.yul\":1045:1115   */\n    tag_36:\n        /* \"#utility.yul\":1134:1139   */\n      swap3\n      pop\n        /* \"#utility.yul\":1190:1192   */\n      0x20\n        /* \"#utility.yul\":1175:1193   */\n      dup5\n      add\n        /* \"#utility.yul\":1162:1194   */\n      calldataload\n        /* \"#utility.yul\":1213:1231   */\n      0xffffffffffffffff\n        /* \"#utility.yul\":1243:1257   */\n      dup1\n      dup3\n      gt\n        /* \"#utility.yul\":1240:1274   */\n      iszero\n      tag_37\n      jumpi\n        /* \"#utility.yul\":1270:1271   */\n      0x00\n        /* \"#utility.yul\":1267:1268   */\n      dup1\n        /* \"#utility.yul\":1260:1272   */\n      revert\n        /* \"#utility.yul\":1240:1274   */\n    tag_37:\n        /* \"#utility.yul\":1308:1314   */\n      dup2\n        /* \"#utility.yul\":1297:1306   */\n      dup7\n        /* \"#utility.yul\":1293:1315   */\n      add\n        /* \"#utility.yul\":1283:1315   */\n      swap2\n      pop\n        /* \"#utility.yul\":1353:1360   */\n      dup7\n        /* \"#utility.yul\":1346:1350   */\n      0x1f\n        /* \"#utility.yul\":1342:1344   */\n      dup4\n        /* \"#utility.yul\":1338:1351   */\n      add\n        /* \"#utility.yul\":1334:1361   */\n      slt\n        /* \"#utility.yul\":1324:1379   */\n      tag_38\n      jumpi\n        /* \"#utility.yul\":1375:1376   */\n      0x00\n        /* \"#utility.yul\":1372:1373   */\n      dup1\n        /* \"#utility.yul\":1365:1377   */\n      revert\n        /* \"#utility.yul\":1324:1379   */\n    tag_38:\n        /* \"#utility.yul\":1415:1417   */\n      dup2\n        /* \"#utility.yul\":1402:1418   */\n      calldataload\n        /* \"#utility.yul\":1441:1443   */\n      dup2\n        /* \"#utility.yul\":1433:1439   */\n      dup2\n        /* \"#utility.yul\":1430:1444   */\n      gt\n        /* \"#utility.yul\":1427:1461   */\n      iszero\n      tag_39\n      jumpi\n        /* \"#utility.yul\":1457:1458   */\n      0x00\n        /* \"#utility.yul\":1454:1455   */\n      dup1\n        /* \"#utility.yul\":1447:1459   */\n      revert\n        /* \"#utility.yul\":1427:1461   */\n    tag_39:\n        /* \"#utility.yul\":1502:1509   */\n      dup8\n        /* \"#utility.yul\":1497:1499   */\n      0x20\n        /* \"#utility.yul\":1488:1494   */\n      dup3\n        /* \"#utility.yul\":1484:1486   */\n      dup6\n        /* \"#utility.yul\":1480:1495   */\n      add\n        /* \"#utility.yul\":1476:1500   */\n      add\n        /* \"#utility.yul\":1473:1510   */\n      gt\n        /* \"#utility.yul\":1470:1527   */\n      iszero\n      tag_40\n      jumpi\n        /* \"#utility.yul\":1523:1524   */\n      0x00\n        /* \"#utility.yul\":1520:1521   */\n      dup1\n        /* \"#utility.yul\":1513:1525   */\n      revert\n        /* \"#utility.yul\":1470:1527   */\n    tag_40:\n        /* \"#utility.yul\":1554:1556   */\n      0x20\n        /* \"#utility.yul\":1550:1552   */\n      dup4\n        /* \"#utility.yul\":1546:1557   */\n      add\n        /* \"#utility.yul\":1536:1557   */\n      swap5\n      pop\n        /* \"#utility.yul\":1576:1582   */\n      dup1\n        /* \"#utility.yul\":1566:1582   */\n      swap4\n      pop\n      pop\n      pop\n      pop\n        /* \"#utility.yul\":823:1588   */\n      swap3\n      pop\n      swap3\n      pop\n      swap3\n      jump\t// out\n        /* \"#utility.yul\":1593:1864   */\n    tag_16:\n        /* \"#utility.yul\":1776:1782   */\n      dup2\n        /* \"#utility.yul\":1768:1774   */\n      dup4\n        /* \"#utility.yul\":1763:1766   */\n      dup3\n        /* \"#utility.yul\":1750:1783   */\n      calldatacopy\n        /* \"#utility.yul\":1732:1735   */\n      0x00\n        /* \"#utility.yul\":1802:1818   */\n      swap2\n      add\n        /* \"#utility.yul\":1827:1840   */\n      swap1\n      dup2\n      mstore\n        /* \"#utility.yul\":1802:1818   */\n      swap2\n        /* \"#utility.yul\":1593:1864   */\n      swap1\n      pop\n      jump\t// out\n        /* \"#utility.yul\":2209:2426   */\n    tag_24:\n        /* \"#utility.yul\":2356:2358   */\n      0x20\n        /* \"#utility.yul\":2345:2354   */\n      dup2\n        /* \"#utility.yul\":2338:2359   */\n      mstore\n        /* \"#utility.yul\":2319:2323   */\n      0x00\n        /* \"#utility.yul\":2376:2420   */\n      tag_44\n        /* \"#utility.yul\":2416:2418   */\n      0x20\n        /* \"#utility.yul\":2405:2414   */\n      dup4\n        /* \"#utility.yul\":2401:2419   */\n      add\n        /* \"#utility.yul\":2393:2399   */\n      dup5\n        /* \"#utility.yul\":2376:2420   */\n      tag_25\n      jump\t// in\n    tag_44:\n        /* \"#utility.yul\":2368:2420   */\n      swap4\n        /* \"#utility.yul\":2209:2426   */\n      swap3\n      pop\n      pop\n      pop\n      jump\t// out\n\n    auxdata: 0xa26469706673582212207a9ce413a3145ac7c185295f6fdb2609999ccec593c451deaf9328ba86c0004364736f6c63430008150033\n}\n",
				"bytecode": {
					"linkReferences": {},
					"object": "608060405234801561000f575f80fd5b506102e98061001d5f395ff3fe608060405234801561000f575f80fd5b5060043610610034575f3560e01c80636610f5ca1461003857806393e01418146100a1575b5f80fd5b61008a60408051600480825260248083018452602080840180516001600160e01b03908116631b53398f60e21b179091528551938452918301909452928101805190931662dc4c0f60e61b1790925291565b6040516100989291906101d5565b60405180910390f35b6100b46100af366004610202565b6100b6565b005b5f80846001600160a01b031684846040516100d292919061028b565b5f604051808303815f865af19150503d805f811461010b576040519150601f19603f3d011682016040523d82523d5f602084013e610110565b606091505b5091509150816101545760405162461bcd60e51b815260206004820152600b60248201526a18d85b1b0819985a5b195960aa1b604482015260640160405180910390fd5b7fafabcf2dd47e06a477a89e49c03f8ebe8e0a7e94f775b25bbb24227c9d0110b281604051610183919061029a565b60405180910390a15050505050565b5f81518084525f5b818110156101b65760208185018101518683018201520161019a565b505f602082860101526020601f19601f83011685010191505092915050565b604081525f6101e76040830185610192565b82810360208401526101f98185610192565b95945050505050565b5f805f60408486031215610214575f80fd5b83356001600160a01b038116811461022a575f80fd5b9250602084013567ffffffffffffffff80821115610246575f80fd5b818601915086601f830112610259575f80fd5b813581811115610267575f80fd5b876020828501011115610278575f80fd5b6020830194508093505050509250925092565b818382375f9101908152919050565b602081525f6102ac6020830184610192565b939250505056fea26469706673582212207a9ce413a3145ac7c185295f6fdb2609999ccec593c451deaf9328ba86c0004364736f6c63430008150033",
					"opcodes": "PUSH1 0x80 PUSH1 0x40 MSTORE CALLVALUE DUP1 ISZERO PUSH2 0xF JUMPI PUSH0 DUP1 REVERT JUMPDEST POP PUSH2 0x2E9 DUP1 PUSH2 0x1D PUSH0 CODECOPY PUSH0 RETURN INVALID PUSH1 0x80 PUSH1 0x40 MSTORE CALLVALUE DUP1 ISZERO PUSH2 0xF JUMPI PUSH0 DUP1 REVERT JUMPDEST POP PUSH1 0x4 CALLDATASIZE LT PUSH2 0x34 JUMPI PUSH0 CALLDATALOAD PUSH1 0xE0 SHR DUP1 PUSH4 0x6610F5CA EQ PUSH2 0x38 JUMPI DUP1 PUSH4 0x93E01418 EQ PUSH2 0xA1 JUMPI JUMPDEST PUSH0 DUP1 REVERT JUMPDEST PUSH2 0x8A PUSH1 0x40 DUP1 MLOAD PUSH1 0x4 DUP1 DUP3 MSTORE PUSH1 0x24 DUP1 DUP4 ADD DUP5 MSTORE PUSH1 0x20 DUP1 DUP5 ADD DUP1 MLOAD PUSH1 0x1 PUSH1 0x1 PUSH1 0xE0 SHL SUB SWAP1 DUP2 AND PUSH4 0x1B53398F PUSH1 0xE2 SHL OR SWAP1 SWAP2 MSTORE DUP6 MLOAD SWAP4 DUP5 MSTORE SWAP2 DUP4 ADD SWAP1 SWAP5 MSTORE SWAP3 DUP2 ADD DUP1 MLOAD SWAP1 SWAP4 AND PUSH3 0xDC4C0F PUSH1 0xE6 SHL OR SWAP1 SWAP3 MSTORE SWAP2 JUMP JUMPDEST PUSH1 0x40 MLOAD PUSH2 0x98 SWAP3 SWAP2 SWAP1 PUSH2 0x1D5 JUMP JUMPDEST PUSH1 0x40 MLOAD DUP1 SWAP2 SUB SWAP1 RETURN JUMPDEST PUSH2 0xB4 PUSH2 0xAF CALLDATASIZE PUSH1 0x4 PUSH2 0x202 JUMP JUMPDEST PUSH2 0xB6 JUMP JUMPDEST STOP JUMPDEST PUSH0 DUP1 DUP5 PUSH1 0x1 PUSH1 0x1 PUSH1 0xA0 SHL SUB AND DUP5 DUP5 PUSH1 0x40 MLOAD PUSH2 0xD2 SWAP3 SWAP2 SWAP1 PUSH2 0x28B JUMP JUMPDEST PUSH0 PUSH1 0x40 MLOAD DUP1 DUP4 SUB DUP2 PUSH0 DUP7 GAS CALL SWAP2 POP POP RETURNDATASIZE DUP1 PUSH0 DUP2 EQ PUSH2 0x10B JUMPI PUSH1 0x40 MLOAD SWAP2 POP PUSH1 0x1F NOT PUSH1 0x3F RETURNDATASIZE ADD AND DUP3 ADD PUSH1 0x40 MSTORE RETURNDATASIZE DUP3 MSTORE RETURNDATASIZE PUSH0 PUSH1 0x20 DUP5 ADD RETURNDATACOPY PUSH2 0x110 JUMP JUMPDEST PUSH1 0x60 SWAP2 POP JUMPDEST POP SWAP2 POP SWAP2 POP DUP2 PUSH2 0x154 JUMPI PUSH1 0x40 MLOAD PUSH3 0x461BCD PUSH1 0xE5 SHL DUP2 MSTORE PUSH1 0x20 PUSH1 0x4 DUP3 ADD MSTORE PUSH1 0xB PUSH1 0x24 DUP3 ADD MSTORE PUSH11 0x18D85B1B0819985A5B1959 PUSH1 0xAA SHL PUSH1 0x44 DUP3 ADD MSTORE PUSH1 0x64 ADD PUSH1 0x40 MLOAD DUP1 SWAP2 SUB SWAP1 REVERT JUMPDEST PUSH32 0xAFABCF2DD47E06A477A89E49C03F8EBE8E0A7E94F775B25BBB24227C9D0110B2 DUP2 PUSH1 0x40 MLOAD PUSH2 0x183 SWAP2 SWAP1 PUSH2 0x29A JUMP JUMPDEST PUSH1 0x40 MLOAD DUP1 SWAP2 SUB SWAP1 LOG1 POP POP POP POP POP JUMP JUMPDEST PUSH0 DUP2 MLOAD DUP1 DUP5 MSTORE PUSH0 JUMPDEST DUP2 DUP2 LT ISZERO PUSH2 0x1B6 JUMPI PUSH1 0x20 DUP2 DUP6 ADD DUP2 ADD MLOAD DUP7 DUP4 ADD DUP3 ADD MSTORE ADD PUSH2 0x19A JUMP JUMPDEST POP PUSH0 PUSH1 0x20 DUP3 DUP7 ADD ADD MSTORE PUSH1 0x20 PUSH1 0x1F NOT PUSH1 0x1F DUP4 ADD AND DUP6 ADD ADD SWAP2 POP POP SWAP3 SWAP2 POP POP JUMP JUMPDEST PUSH1 0x40 DUP2 MSTORE PUSH0 PUSH2 0x1E7 PUSH1 0x40 DUP4 ADD DUP6 PUSH2 0x192 JUMP JUMPDEST DUP3 DUP2 SUB PUSH1 0x20 DUP5 ADD MSTORE PUSH2 0x1F9 DUP2 DUP6 PUSH2 0x192 JUMP JUMPDEST SWAP6 SWAP5 POP POP POP POP POP JUMP JUMPDEST PUSH0 DUP1 PUSH0 PUSH1 0x40 DUP5 DUP7 SUB SLT ISZERO PUSH2 0x214 JUMPI PUSH0 DUP1 REVERT JUMPDEST DUP4 CALLDATALOAD PUSH1 0x1 PUSH1 0x1 PUSH1 0xA0 SHL SUB DUP2 AND DUP2 EQ PUSH2 0x22A JUMPI PUSH0 DUP1 REVERT JUMPDEST SWAP3 POP PUSH1 0x20 DUP5 ADD CALLDATALOAD PUSH8 0xFFFFFFFFFFFFFFFF DUP1 DUP3 GT ISZERO PUSH2 0x246 JUMPI PUSH0 DUP1 REVERT JUMPDEST DUP2 DUP7 ADD SWAP2 POP DUP7 PUSH1 0x1F DUP4 ADD SLT PUSH2 0x259 JUMPI PUSH0 DUP1 REVERT JUMPDEST DUP2 CALLDATALOAD DUP2 DUP2 GT ISZERO PUSH2 0x267 JUMPI PUSH0 DUP1 REVERT JUMPDEST DUP8 PUSH1 0x20 DUP3 DUP6 ADD ADD GT ISZERO PUSH2 0x278 JUMPI PUSH0 DUP1 REVERT JUMPDEST PUSH1 0x20 DUP4 ADD SWAP5 POP DUP1 SWAP4 POP POP POP POP SWAP3 POP SWAP3 POP SWAP3 JUMP JUMPDEST DUP2 DUP4 DUP3 CALLDATACOPY PUSH0 SWAP2 ADD SWAP1 DUP2 MSTORE SWAP2 SWAP1 POP JUMP JUMPDEST PUSH1 0x20 DUP2 MSTORE PUSH0 PUSH2 0x2AC PUSH1 0x20 DUP4 ADD DUP5 PUSH2 0x192 JUMP JUMPDEST SWAP4 SWAP3 POP POP POP JUMP INVALID LOG2 PUSH5 0x6970667358 0x22 SLT KECCAK256 PUSH27 0x9CE413A3145AC7C185295F6FDB2609999CCEC593C451DEAF9328BA DUP7 0xC0 STOP NUMBER PUSH5 0x736F6C6343 STOP ADDMOD ISZERO STOP CALLER "
				},
				"gasEstimates": {
					"creation": {
						"codeDepositCost": "149000",
						"executionCost": "194",
						"totalCost": "149194"
					},
					"external": {
						"getTestData()": "infinite",
						"test(address,bytes)": "infinite"
					}
				},
				"methodIdentifiers": {
					"getTestData()": "6610f5ca",
					"test(address,bytes)": "93e01418"
				}
			},
			"storageLayout": {
				"storage": [],
				"types": null
			},
			"userdoc": {
				"kind": "user",
				"methods": {},
				"version": 1
			}
		}
	}
}