{
	"src/pages/delegatecall/Delegatecall.sol": {
		"A": {
			"abi": [
				{
					"inputs": [],
					"name": "num",
					"outputs": [
						{
							"internalType": "uint256",
							"name": "",
							"type": "uint256"
						}
					],
					"stateMutability": "view",
					"type": "function"
				},
				{
					"inputs": [],
					"name": "sender",
					"outputs": [
						{
							"internalType": "address",
							"name": "",
							"type": "address"
						}
					],
					"stateMutability": "view",
					"type": "function"
				},
				{
					"inputs": [
						{
							"internalType": "address",
							"name": "_contract",
							"type": "address"
						},
						{
							"internalType": "uint256",
							"name": "_num",
							"type": "uint256"
						}
					],
					"name": "setVars",
					"outputs": [],
					"stateMutability": "payable",
					"type": "function"
				},
				{
					"inputs": [],
					"name": "value",
					"outputs": [
						{
							"internalType": "uint256",
							"name": "",
							"type": "uint256"
						}
					],
					"stateMutability": "view",
					"type": "function"
				}
			],
			"devdoc": {
				"kind": "dev",
				"methods": {},
				"version": 1
			},
			"evm": {
				"assembly": "    /* \"src/pages/delegatecall/Delegatecall.sol\":389:751  contract A {... */\n  mstore(0x40, 0x80)\n  callvalue\n  dup1\n  iszero\n  tag_1\n  jumpi\n  0x00\n  dup1\n  revert\ntag_1:\n  pop\n  dataSize(sub_0)\n  dup1\n  dataOffset(sub_0)\n  0x00\n  codecopy\n  0x00\n  return\nstop\n\nsub_0: assembly {\n        /* \"src/pages/delegatecall/Delegatecall.sol\":389:751  contract A {... */\n      mstore(0x40, 0x80)\n      jumpi(tag_1, lt(calldatasize, 0x04))\n      shr(0xe0, calldataload(0x00))\n      dup1\n      0x3fa4f245\n      eq\n      tag_2\n      jumpi\n      dup1\n      0x4e70b1dc\n      eq\n      tag_3\n      jumpi\n      dup1\n      0x67e404ce\n      eq\n      tag_4\n      jumpi\n      dup1\n      0xd1e0f308\n      eq\n      tag_5\n      jumpi\n    tag_1:\n      0x00\n      dup1\n      revert\n        /* \"src/pages/delegatecall/Delegatecall.sol\":457:474  uint public value */\n    tag_2:\n      callvalue\n      dup1\n      iszero\n      tag_6\n      jumpi\n      0x00\n      dup1\n      revert\n    tag_6:\n      pop\n      tag_7\n      sload(0x02)\n      dup2\n      jump\n    tag_7:\n      mload(0x40)\n        /* \"#utility.yul\":160:185   */\n      swap1\n      dup2\n      mstore\n        /* \"#utility.yul\":148:150   */\n      0x20\n        /* \"#utility.yul\":133:151   */\n      add\n        /* \"src/pages/delegatecall/Delegatecall.sol\":457:474  uint public value */\n    tag_9:\n      mload(0x40)\n      dup1\n      swap2\n      sub\n      swap1\n      return\n        /* \"src/pages/delegatecall/Delegatecall.sol\":407:422  uint public num */\n    tag_3:\n      callvalue\n      dup1\n      iszero\n      tag_11\n      jumpi\n      0x00\n      dup1\n      revert\n    tag_11:\n      pop\n      tag_7\n      sload(0x00)\n      dup2\n      jump\n        /* \"src/pages/delegatecall/Delegatecall.sol\":429:450  address public sender */\n    tag_4:\n      callvalue\n      dup1\n      iszero\n      tag_15\n      jumpi\n      0x00\n      dup1\n      revert\n    tag_15:\n      pop\n      sload(0x01)\n      tag_16\n      swap1\n      sub(shl(0xa0, 0x01), 0x01)\n      and\n      dup2\n      jump\n    tag_16:\n      mload(0x40)\n      sub(shl(0xa0, 0x01), 0x01)\n        /* \"#utility.yul\":360:392   */\n      swap1\n      swap2\n      and\n        /* \"#utility.yul\":342:393   */\n      dup2\n      mstore\n        /* \"#utility.yul\":330:332   */\n      0x20\n        /* \"#utility.yul\":315:333   */\n      add\n        /* \"src/pages/delegatecall/Delegatecall.sol\":429:450  address public sender */\n      tag_9\n        /* \"#utility.yul\":196:399   */\n      jump\n        /* \"src/pages/delegatecall/Delegatecall.sol\":483:748  function setVars(address _contract, uint _num) public payable {... */\n    tag_5:\n      tag_20\n      tag_21\n      calldatasize\n      0x04\n      tag_22\n      jump\t// in\n    tag_21:\n      tag_23\n      jump\t// in\n    tag_20:\n      stop\n    tag_23:\n        /* \"src/pages/delegatecall/Delegatecall.sol\":608:620  bool success */\n      0x00\n        /* \"src/pages/delegatecall/Delegatecall.sol\":622:639  bytes memory data */\n      dup1\n        /* \"src/pages/delegatecall/Delegatecall.sol\":643:652  _contract */\n      dup4\n      sub(shl(0xa0, 0x01), 0x01)\n        /* \"src/pages/delegatecall/Delegatecall.sol\":643:665  _contract.delegatecall */\n      and\n        /* \"src/pages/delegatecall/Delegatecall.sol\":724:728  _num */\n      dup4\n        /* \"src/pages/delegatecall/Delegatecall.sol\":680:729  abi.encodeWithSignature(\"setVars(uint256)\", _num) */\n      add(0x24, mload(0x40))\n      tag_25\n      swap2\n        /* \"#utility.yul\":160:185   */\n      dup2\n      mstore\n        /* \"#utility.yul\":148:150   */\n      0x20\n        /* \"#utility.yul\":133:151   */\n      add\n      swap1\n        /* \"#utility.yul\":14:191   */\n      jump\n        /* \"src/pages/delegatecall/Delegatecall.sol\":680:729  abi.encodeWithSignature(\"setVars(uint256)\", _num) */\n    tag_25:\n      0x40\n      dup1\n      mload\n      not(0x1f)\n      dup2\n      dup5\n      sub\n      add\n      dup2\n      mstore\n      swap2\n      dup2\n      mstore\n      0x20\n      dup3\n      add\n      dup1\n      mload\n      sub(shl(0xe0, 0x01), 0x01)\n      and\n      shl(0xe0, 0x6466414b)\n      or\n      swap1\n      mstore\n        /* \"src/pages/delegatecall/Delegatecall.sol\":643:740  _contract.delegatecall(... */\n      mload\n      tag_26\n      swap2\n        /* \"src/pages/delegatecall/Delegatecall.sol\":680:729  abi.encodeWithSignature(\"setVars(uint256)\", _num) */\n      swap1\n        /* \"src/pages/delegatecall/Delegatecall.sol\":643:740  _contract.delegatecall(... */\n      tag_27\n      jump\t// in\n    tag_26:\n      0x00\n      mload(0x40)\n      dup1\n      dup4\n      sub\n      dup2\n      dup6\n      gas\n      delegatecall\n      swap2\n      pop\n      pop\n      returndatasize\n      dup1\n      0x00\n      dup2\n      eq\n      tag_30\n      jumpi\n      mload(0x40)\n      swap2\n      pop\n      and(add(returndatasize, 0x3f), not(0x1f))\n      dup3\n      add\n      0x40\n      mstore\n      returndatasize\n      dup3\n      mstore\n      returndatasize\n      0x00\n      0x20\n      dup5\n      add\n      returndatacopy\n      jump(tag_29)\n    tag_30:\n      0x60\n      swap2\n      pop\n    tag_29:\n      pop\n      pop\n      pop\n      pop\n      pop\n      pop\n      pop\n        /* \"src/pages/delegatecall/Delegatecall.sol\":483:748  function setVars(address _contract, uint _num) public payable {... */\n      jump\t// out\n        /* \"#utility.yul\":404:758   */\n    tag_22:\n        /* \"#utility.yul\":472:478   */\n      0x00\n        /* \"#utility.yul\":480:486   */\n      dup1\n        /* \"#utility.yul\":533:535   */\n      0x40\n        /* \"#utility.yul\":521:530   */\n      dup4\n        /* \"#utility.yul\":512:519   */\n      dup6\n        /* \"#utility.yul\":508:531   */\n      sub\n        /* \"#utility.yul\":504:536   */\n      slt\n        /* \"#utility.yul\":501:553   */\n      iszero\n      tag_35\n      jumpi\n        /* \"#utility.yul\":549:550   */\n      0x00\n        /* \"#utility.yul\":546:547   */\n      dup1\n        /* \"#utility.yul\":539:551   */\n      revert\n        /* \"#utility.yul\":501:553   */\n    tag_35:\n        /* \"#utility.yul\":575:598   */\n      dup3\n      calldataload\n      sub(shl(0xa0, 0x01), 0x01)\n        /* \"#utility.yul\":627:658   */\n      dup2\n      and\n        /* \"#utility.yul\":617:659   */\n      dup2\n      eq\n        /* \"#utility.yul\":607:677   */\n      tag_36\n      jumpi\n        /* \"#utility.yul\":673:674   */\n      0x00\n        /* \"#utility.yul\":670:671   */\n      dup1\n        /* \"#utility.yul\":663:675   */\n      revert\n        /* \"#utility.yul\":607:677   */\n    tag_36:\n        /* \"#utility.yul\":696:701   */\n      swap5\n        /* \"#utility.yul\":748:750   */\n      0x20\n        /* \"#utility.yul\":733:751   */\n      swap4\n      swap1\n      swap4\n      add\n        /* \"#utility.yul\":720:752   */\n      calldataload\n      swap4\n      pop\n      pop\n      pop\n        /* \"#utility.yul\":404:758   */\n      jump\t// out\n        /* \"#utility.yul\":763:1175   */\n    tag_27:\n        /* \"#utility.yul\":892:895   */\n      0x00\n        /* \"#utility.yul\":930:936   */\n      dup3\n        /* \"#utility.yul\":924:937   */\n      mload\n        /* \"#utility.yul\":955:956   */\n      0x00\n        /* \"#utility.yul\":965:1094   */\n    tag_38:\n        /* \"#utility.yul\":979:985   */\n      dup2\n        /* \"#utility.yul\":976:977   */\n      dup2\n        /* \"#utility.yul\":973:986   */\n      lt\n        /* \"#utility.yul\":965:1094   */\n      iszero\n      tag_40\n      jumpi\n        /* \"#utility.yul\":1077:1081   */\n      0x20\n        /* \"#utility.yul\":1061:1075   */\n      dup2\n      dup7\n      add\n        /* \"#utility.yul\":1057:1082   */\n      dup2\n      add\n        /* \"#utility.yul\":1051:1083   */\n      mload\n        /* \"#utility.yul\":1038:1049   */\n      dup6\n      dup4\n      add\n        /* \"#utility.yul\":1031:1084   */\n      mstore\n        /* \"#utility.yul\":994:1006   */\n      add\n        /* \"#utility.yul\":965:1094   */\n      jump(tag_38)\n    tag_40:\n      pop\n        /* \"#utility.yul\":1149:1150   */\n      0x00\n        /* \"#utility.yul\":1113:1129   */\n      swap3\n      add\n        /* \"#utility.yul\":1138:1151   */\n      swap2\n      dup3\n      mstore\n      pop\n        /* \"#utility.yul\":1113:1129   */\n      swap2\n        /* \"#utility.yul\":763:1175   */\n      swap1\n      pop\n      jump\t// out\n\n    auxdata: 0xa2646970667358221220bef0a7e199eb19645a482fc7108239665b5a91486b64bb0c41fa4901a8153b2c64736f6c63430008150033\n}\n",
				"bytecode": {
					"linkReferences": {},
					"object": "608060405234801561000f575f80fd5b506101fb8061001d5f395ff3fe60806040526004361061003e575f3560e01c80633fa4f245146100425780634e70b1dc1461006a57806367e404ce1461007e578063d1e0f308146100b5575b5f80fd5b34801561004d575f80fd5b5061005760025481565b6040519081526020015b60405180910390f35b348015610075575f80fd5b506100575f5481565b348015610089575f80fd5b5060015461009d906001600160a01b031681565b6040516001600160a01b039091168152602001610061565b6100c86100c3366004610164565b6100ca565b005b5f80836001600160a01b0316836040516024016100e991815260200190565b60408051601f198184030181529181526020820180516001600160e01b0316636466414b60e01b1790525161011e9190610199565b5f60405180830381855af49150503d805f8114610156576040519150601f19603f3d011682016040523d82523d5f602084013e61015b565b606091505b50505050505050565b5f8060408385031215610175575f80fd5b82356001600160a01b038116811461018b575f80fd5b946020939093013593505050565b5f82515f5b818110156101b8576020818601810151858301520161019e565b505f92019182525091905056fea2646970667358221220bef0a7e199eb19645a482fc7108239665b5a91486b64bb0c41fa4901a8153b2c64736f6c63430008150033",
					"opcodes": "PUSH1 0x80 PUSH1 0x40 MSTORE CALLVALUE DUP1 ISZERO PUSH2 0xF JUMPI PUSH0 DUP1 REVERT JUMPDEST POP PUSH2 0x1FB DUP1 PUSH2 0x1D PUSH0 CODECOPY PUSH0 RETURN INVALID PUSH1 0x80 PUSH1 0x40 MSTORE PUSH1 0x4 CALLDATASIZE LT PUSH2 0x3E JUMPI PUSH0 CALLDATALOAD PUSH1 0xE0 SHR DUP1 PUSH4 0x3FA4F245 EQ PUSH2 0x42 JUMPI DUP1 PUSH4 0x4E70B1DC EQ PUSH2 0x6A JUMPI DUP1 PUSH4 0x67E404CE EQ PUSH2 0x7E JUMPI DUP1 PUSH4 0xD1E0F308 EQ PUSH2 0xB5 JUMPI JUMPDEST PUSH0 DUP1 REVERT JUMPDEST CALLVALUE DUP1 ISZERO PUSH2 0x4D JUMPI PUSH0 DUP1 REVERT JUMPDEST POP PUSH2 0x57 PUSH1 0x2 SLOAD DUP2 JUMP JUMPDEST PUSH1 0x40 MLOAD SWAP1 DUP2 MSTORE PUSH1 0x20 ADD JUMPDEST PUSH1 0x40 MLOAD DUP1 SWAP2 SUB SWAP1 RETURN JUMPDEST CALLVALUE DUP1 ISZERO PUSH2 0x75 JUMPI PUSH0 DUP1 REVERT JUMPDEST POP PUSH2 0x57 PUSH0 SLOAD DUP2 JUMP JUMPDEST CALLVALUE DUP1 ISZERO PUSH2 0x89 JUMPI PUSH0 DUP1 REVERT JUMPDEST POP PUSH1 0x1 SLOAD PUSH2 0x9D SWAP1 PUSH1 0x1 PUSH1 0x1 PUSH1 0xA0 SHL SUB AND DUP2 JUMP JUMPDEST PUSH1 0x40 MLOAD PUSH1 0x1 PUSH1 0x1 PUSH1 0xA0 SHL SUB SWAP1 SWAP2 AND DUP2 MSTORE PUSH1 0x20 ADD PUSH2 0x61 JUMP JUMPDEST PUSH2 0xC8 PUSH2 0xC3 CALLDATASIZE PUSH1 0x4 PUSH2 0x164 JUMP JUMPDEST PUSH2 0xCA JUMP JUMPDEST STOP JUMPDEST PUSH0 DUP1 DUP4 PUSH1 0x1 PUSH1 0x1 PUSH1 0xA0 SHL SUB AND DUP4 PUSH1 0x40 MLOAD PUSH1 0x24 ADD PUSH2 0xE9 SWAP2 DUP2 MSTORE PUSH1 0x20 ADD SWAP1 JUMP JUMPDEST PUSH1 0x40 DUP1 MLOAD PUSH1 0x1F NOT DUP2 DUP5 SUB ADD DUP2 MSTORE SWAP2 DUP2 MSTORE PUSH1 0x20 DUP3 ADD DUP1 MLOAD PUSH1 0x1 PUSH1 0x1 PUSH1 0xE0 SHL SUB AND PUSH4 0x6466414B PUSH1 0xE0 SHL OR SWAP1 MSTORE MLOAD PUSH2 0x11E SWAP2 SWAP1 PUSH2 0x199 JUMP JUMPDEST PUSH0 PUSH1 0x40 MLOAD DUP1 DUP4 SUB DUP2 DUP6 GAS DELEGATECALL SWAP2 POP POP RETURNDATASIZE DUP1 PUSH0 DUP2 EQ PUSH2 0x156 JUMPI PUSH1 0x40 MLOAD SWAP2 POP PUSH1 0x1F NOT PUSH1 0x3F RETURNDATASIZE ADD AND DUP3 ADD PUSH1 0x40 MSTORE RETURNDATASIZE DUP3 MSTORE RETURNDATASIZE PUSH0 PUSH1 0x20 DUP5 ADD RETURNDATACOPY PUSH2 0x15B JUMP JUMPDEST PUSH1 0x60 SWAP2 POP JUMPDEST POP POP POP POP POP POP POP JUMP JUMPDEST PUSH0 DUP1 PUSH1 0x40 DUP4 DUP6 SUB SLT ISZERO PUSH2 0x175 JUMPI PUSH0 DUP1 REVERT JUMPDEST DUP3 CALLDATALOAD PUSH1 0x1 PUSH1 0x1 PUSH1 0xA0 SHL SUB DUP2 AND DUP2 EQ PUSH2 0x18B JUMPI PUSH0 DUP1 REVERT JUMPDEST SWAP5 PUSH1 0x20 SWAP4 SWAP1 SWAP4 ADD CALLDATALOAD SWAP4 POP POP POP JUMP JUMPDEST PUSH0 DUP3 MLOAD PUSH0 JUMPDEST DUP2 DUP2 LT ISZERO PUSH2 0x1B8 JUMPI PUSH1 0x20 DUP2 DUP7 ADD DUP2 ADD MLOAD DUP6 DUP4 ADD MSTORE ADD PUSH2 0x19E JUMP JUMPDEST POP PUSH0 SWAP3 ADD SWAP2 DUP3 MSTORE POP SWAP2 SWAP1 POP JUMP INVALID LOG2 PUSH5 0x6970667358 0x22 SLT KECCAK256 0xBE CREATE 0xA7 0xE1 SWAP10 0xEB NOT PUSH5 0x5A482FC710 DUP3 CODECOPY PUSH7 0x5B5A91486B64BB 0xC COINBASE STATICCALL 0x49 ADD 0xA8 ISZERO EXTCODESIZE 0x2C PUSH5 0x736F6C6343 STOP ADDMOD ISZERO STOP CALLER "
				},
				"gasEstimates": {
					"creation": {
						"codeDepositCost": "101400",
						"executionCost": "145",
						"totalCost": "101545"
					},
					"external": {
						"num()": "2282",
						"sender()": "2358",
						"setVars(address,uint256)": "infinite",
						"value()": "2261"
					}
				},
				"methodIdentifiers": {
					"num()": "4e70b1dc",
					"sender()": "67e404ce",
					"setVars(address,uint256)": "d1e0f308",
					"value()": "3fa4f245"
				}
			},
			"storageLayout": {
				"storage": [
					{
						"astId": 30,
						"contract": "src/pages/delegatecall/Delegatecall.sol:A",
						"label": "num",
						"offset": 0,
						"slot": "0",
						"type": "t_uint256"
					},
					{
						"astId": 32,
						"contract": "src/pages/delegatecall/Delegatecall.sol:A",
						"label": "sender",
						"offset": 0,
						"slot": "1",
						"type": "t_address"
					},
					{
						"astId": 34,
						"contract": "src/pages/delegatecall/Delegatecall.sol:A",
						"label": "value",
						"offset": 0,
						"slot": "2",
						"type": "t_uint256"
					}
				],
				"types": {
					"t_address": {
						"encoding": "inplace",
						"label": "address",
						"numberOfBytes": "20"
					},
					"t_uint256": {
						"encoding": "inplace",
						"label": "uint256",
						"numberOfBytes": "32"
					}
				}
			},
			"userdoc": {
				"kind": "user",
				"methods": {},
				"version": 1
			}
		}
	}
}